:020000040800F2
:10000000F01700203D020008C3350008812A0008CF
:10001000BF3500084D230008614A000800000000B9
:10002000000000000000000000000000F144000893
:100030000D26000800000000A14300080546000846
:10004000570200085702000857020008570200082C
:10005000570200085702000857020008570200081C
:10006000570200085702000857020008570200080C
:1000700057020008570200085702000857020008FC
:1000800057020008570200085702000857020008EC
:1000900057020008570200085702000857020008DC
:1000A00057020008570200085702000857020008CC
:1000B00069460008894600085702000857020008F0
:1000C00057020008570200085702000857020008AC
:1000D0005702000835480008814800085702000808
:1000E00057020008570200085702000800F002F803
:1000F00000F094F80AA090E8000C82448344AAF12E
:100100000107DA4501D100F089F8AFF2090EBAE82B
:100110000F0013F0010F18BFFB1A43F0010318473B
:1001200084790000A4790000103A24BF78C878C10F
:10013000FAD8520724BF30C830C144BF04680C60ED
:10014000704700000023002400250026103A28BF35
:1001500078C1FBD8520728BF30C148BF0B60704739
:100160006E2900F0E584702900F0E781662906F029
:10017000C987652906F0C687672906F0C387612904
:1001800006F0C28703681B0A28BF41F08001692975
:1001900000F05881642900F05581752900F05281E2
:1001A0006F2900F0E287782900F0B381E92900F097
:1001B0007D87E42900F07A87F52900F07787EF2919
:1001C00000F0DF87F82900F0B2810368DB0928BF5F
:1001D00041F08001632900F0FE86732900F0038757
:1001E000E32901F00D82F32901F01282002070470B
:1001F0001FB59DE8030000F0EFFB00F0D1FF040005
:100200000020002106F00EF9401C60600020002153
:1002100006F01EF9E0601FBD10B510BD01F096FAA2
:100220001146FFF7E5FF04F0C5FE01F0B4FA03B490
:10023000FFF7F2FF03BC01F025FB000009488047EF
:1002400009480047FEE7FEE7FEE7FEE7FEE7FEE7B8
:10025000FEE7FEE7FEE7FEE704480549054A064BD0
:100260007047000009460008ED000008F003002078
:10027000F0170020F0130020F013002070B50646A0
:1002800000F08EFB056806F10B0020F00704B44275
:100290009CBF002070BD2B466A68BAB11068A042AE
:1002A00010D304F1080188423CBF5068586007D35E
:1002B0005168101941601168091B01605860146091
:1002C000101D70BD13465268002AE7D1214628460A
:1002D00000F06EFB0028DED170BD70B50446051F2E
:1002E00000F05EFB0068002C14BF446870BD002C59
:1002F00018BFAC423CBF20466468F8D301680A18B6
:10030000AA4218BF456003D12A680546114401601E
:1003100028684119A1421CBF6C6070BD61686960AA
:1003200021680844286070BD10B5044600F030FB19
:100330000068005DC00602D504F1200010BD204613
:1003400010BD00007CB51D4616460C00009001D083
:100350002044401E074B7B442A46694601903046A4
:1003600000F00FFE05461CB10020694600F01CFE9F
:1003700028467CBD590C00000FB41CB5084B06AADA
:100380007B4469460090059800F0FBFD0446002080
:10039000694600F009FE20461CBC5DF814FB000015
:1003A000250C000070B5044685690068C10601D5BA
:1003B000302600E02026C00707D070BDD4E9012117
:1003C00030469047206A401C20626D1EF6D570BDF5
:1003D00070B5044685690078C00707D170BDD4E9BF
:1003E000012120209047206A401C20626D1EF6D516
:1003F00070BD70B50C460546012A05D028788006E8
:1004000000D5EA69002302E0012305E05B1C93426A
:1004100002D2E05C0028F9D1A869E618C01AA861E8
:10042000286A184428622846FFF7BCFF04E0D5E993
:10043000012114F8010B9047B442F8D32846FFF786
:10044000C7FF70BD2DE9F0410646002410687529EC
:10045000314616A510D000F000FB002802DA404219
:1004600013A507E031688A0701D512A502E0490704
:1004700004D511A5012401E000F0F8FA00210A22B8
:1004800006F1240709E0B0FBF2FCB0FBF2F302FB3B
:100490001C00303078541846491C0028F3D12346FC
:1004A0002A463046BDE8F04100F0E9BA00000000FD
:1004B0002D0000002B00000020000000F0B40D46CD
:1004C0000188090502D5214C7C4402E01F4C7C4484
:1004D0000E34002100F1240608E002F00F07120993
:1004E000E75D42EA03721B097754491C52EA03078D
:1004F000F3D102780023120704D5702D06D009B17C
:10050000022311342246F0BC00F0B9BA01231034A2
:10051000F8E770B504460D462146106800F0A6FACB
:10052000024629462046BDE870400023C6E7D21D9A
:1005300022F00703D3E90023C0E70368126843F001
:10054000200303600823C3610023B7E75073000052
:100550002DE9F05F894604464FF0000ADFF874B1D8
:10056000FB44C0F820A02046E1688847002874D0EA
:10057000252806D0D4E901219047206A401C20623A
:10058000F1E700265F462046E168884720280546B7
:1005900007DB312D05D2781910F8200C08B106437D
:1005A000F1E7B00701D526F00406C4F81CA0002727
:1005B000C4F818A02A2D09D0284604F0D9FB38B376
:1005C00004EB8708303DC8F8185019E059F8041BAF
:1005D000204604EB87029161E1688847012F0546B8
:1005E00018D1E069002820DA26F020061DE0D8F8AE
:1005F000180000EB800005EB40003038C8F8180008
:100600002046E1688847054604F0B2FB0028EED199
:10061000012F0AD02E2D08D12046E16888477F1C83
:100620000546022F46F02006C4DBA069002803DA45
:10063000404246F00106A061F00701D026F0100606
:100640006C2D0BD0682D09D04C2D39D06A2D35D0AA
:10065000742D35D07A2D33D016E038E0E1682F467E
:1006600020468847B842054609D16C2F26D04FF462
:100670008060E168064320468847054604E06C2F09
:100680001AD04FF4807006430DB3A5F1410019282C
:1006900002D8203546F400664A46294620462660A0
:1006A0004E46FFF75DFD80B101280BD0F61D26F008
:1006B000070000F1080956E74020E4E78020D8E76A
:1006C0000020D6E706F104094DE7284652E7206AE4
:1006D000BDE8F09FE0720000401ECAB210F8011F92
:1006E0008A4202D00029F9D10020704710B5431E7C
:1006F00013F8014F002CFBD105E011F8014B002C41
:1007000003F8014B03D0521EF7D20021197010BD1F
:1007100030B505460B462A4613F8014B12F8010B7B
:1007200008B1A042F8D01CB1002802D06D1CF1E73E
:10073000284630BD10B5431C02E010F8011B71B112
:100740008107FAD14FF0013202C88C1A8C4314EAA7
:10075000C211F9D0C01A0A0603D0C01E10BDC01ABB
:1007600010BD0A0401D0801E10BD0902FCD0401E3D
:1007700010BD40EA010370B59B072ED14FF0013642
:10078000042A2AD308C810C99D1B9D43121F15EACD
:10079000C61517D0D8B2E1B2401A50EA056110D19F
:1007A00098B2A1B2401A50EA05410AD123F07F4025
:1007B00024F07F41401A50EA052102D1180EA0EB27
:1007C000146070BDA342DBD018BA21BA884201D9A7
:1007D000012070BD4FF0FF3070BD0AB9002070BD20
:1007E00010F8013B11F8014B63B1A3420AD1521E2C
:1007F00008D010F8013B11F8014B1BB1A34201D105
:10080000521EEDD1181B70BD032A40F2308010F04B
:10081000030C00F0158011F8013BBCF1020F62449B
:1008200098BF11F801CB00F8013B38BF11F8013B2C
:10083000A2F1040298BF00F801CB38BF00F8013BD9
:1008400011F0030300F02580083AC0F0088051F849
:10085000043B083A51F804CBA0E80810F5E7121D54
:100860005CBF51F8043B40F8043BAFF30080D20773
:1008700024BF11F8013B11F801CB48BF11F8012B3F
:1008800024BF00F8013B00F801CB48BF00F8012B62
:10089000704710B5203AC0F00B80B1E81850203AEC
:1008A000A0E81850B1E81850A0E81850BFF4F5AF10
:1008B0005FEA027C24BFB1E81850A0E8185044BF9A
:1008C00018C918C0BDE810405FEA827C24BF51F807
:1008D000043B40F8043B08BF7047D20728BF31F8FB
:1008E000023B48BF11F8012B28BF20F8023B48BF4C
:1008F00000F8012B70474FF000020429C0F012806D
:1009000010F0030C00F01B80CCF1040CBCF1020FC2
:1009100018BF00F8012BA8BF20F8022BA1EB0C0197
:1009200000F00DB85FEAC17C24BF00F8012B00F88D
:10093000012B48BF00F8012B70474FF0000200B5B3
:10094000134694469646203922BFA0E80C50A0E8F2
:100950000C50B1F12001BFF4F7AF090728BFA0E8A0
:100960000C5048BF0CC05DF804EB890028BF40F86C
:10097000042B08BF704748BF20F8022B11F0804FAE
:1009800018BF00F8012B7047704770477047000090
:1009900010B500F005FC001D10BD00BF895A000015
:1009A00000487047940300207047704770477047B5
:1009B00038B504460A4600206946AFF30080002897
:1009C00008BF38BD02460099204600F0F1FB012027
:1009D00038BD012000F0B2BEF8B5AFF30080054687
:1009E00000200C46102000BF0646A819A0420DD9D1
:1009F000324669460020AFF30080070008BF00F0D0
:100A00009DFE0098A04218BF0546C419FFF7C8FF15
:100A100005600746F01D20F007004619284600F043
:100A20000AF8B44208BFF8BDA21B31463868BDE8D9
:100A3000F84000F0BDBB00210160C0E90110704723
:100A40001020704710B500F0AFFB006810BD10B566
:100A5000044600F0A9FB046010BD09684A0501D5F1
:100A600040B27047C905FCD500B2704709684A0515
:100A700001D5C0B27047C905FCD580B270472DE9D9
:100A8000F0470D4699469246044600F12408016855
:100A9000880604D5E06921F01001216000E0012002
:100AA000A84201DD471B00E00027A1697A1902EB8B
:100AB0000900081AA0612078C00602D42046FFF77A
:100AC00071FC002608E0D4E901211AF806009047DD
:100AD000206A401C761C20624E45F4DB2078C0065C
:100AE0000AD52046FFF75EFC06E0D4E9012130205C
:100AF0009047206A401C2062381EA7F10107F4DCF1
:100B000007E0D4E9012118F805009047206A401C4D
:100B10002062281EA5F10105F3DC2046FFF758FCF2
:100B20002078000602D50220BDE8F0870120FBE70F
:100B300011680268006A530501D508700AE0D30500
:100B400001D5088006E0130603D5C217C1E90002EB
:100B500000E008600120704770472DE9FF4F0C4608
:100B60001E464FF0FF378BB0D2E90001DDF8608000
:100B70000A908A46C1F30A5505B93D460021084648
:100B80004FF00000BAF1000F00F4400005DA00EB6E
:100B900080004FF4400101EA50004FEA9059B9F14A
:100BA000010F00DDB9460A9850EA4A000ED044F61B
:100BB0001050A5F2FF3545432F14B8F1000F1ED099
:100BC0007542291E1EDDC9F100021CE0B8F1010FBB
:100BD0004FF0000001D0302103E0F24305E0215442
:100BE000401CB042FBDB30460022002121540B990F
:100BF000C1F80880C1E900200FB0BDE8F08FBD1B2F
:100C00006D1CDEE74A4600DA694206A800F004FDE2
:100C100006AB93E8070003AB83E8070050460A9948
:100C200000F056FE8DE80700A0F500501F38009038
:100C30000398002D0ADD42F21F014A4608440023B2
:100C400003A90390684601F0BFF809E0A0F5005041
:100C50004A461F38002303A90390684601F0C9F8EB
:100C60008DE807000004000C03D04FF0FF3041086E
:100C700000E01046B8F1000F03D0002200921546A4
:100C80001EE0751E05D400F0ADFA303262556D1EBF
:100C9000F9D5B3460122084302D000227F1C04E0AC
:100CA0002078302801D100227F1E002A099784D0A5
:100CB0001DE0112D07DA00F095FA303262556D1CF7
:100CC00050EA0102F5D1084302D00098C8B10EE005
:100CD0000021681E05E0235C625C63542254401EC0
:100CE000491C8142F7DBAB46A81B401E099000203F
:100CF00004F80B000B98099AC0F80880C0E9002B93
:100D00007AE711264FF0000857E72DE9F04F8846A3
:100D10000446D21D22F0070191B0D1E90001CDE9CE
:100D20000A0103F09CFF02460B98C00F01D02D2052
:100D300007E02068810701D52B2002E0202101EA8D
:100D4000C000032A099001D0072A05DB034641466B
:100D5000204600F00BFC0BE12078800601D5E0690D
:100D600000E00620B8F1650F814606D0B8F1660FA5
:100D700018D0B8F1670F70D131E00020B9F1110F30
:100D8000009001DB112301E009F101030AAA01A986
:100D90000CA8FFF7E2FEDDE90C70002609F1010561
:100DA000834647E001204B4600904FF000470AAAD7
:100DB00001A90CA8FFF7D1FEDDE90DB00C995D4645
:100DC000002610B909F101000D18B9EB050003D494
:100DD000C0F1FF3609F10105A5EB09002BE0B9F1DF
:100DE000010F01DA4FF001090020B9F1110F009055
:100DF000484601DD112300E003460AAA01A90CA818
:100E0000FFF7ABFEDDE90C704D46002683462078E7
:100E100000070AD4AB4500DA5D4601A8012D04DDC8
:100E2000411911F8011C302907D04F4502DA17F19A
:100E3000040F04DA012082460FE06D1EEEE7002F5A
:100E400002DCED1B3E4403E0781CA84200DD7D1C63
:100E5000B81B00F1010A4FF000472078000703D4C7
:100E6000AA4501DB4FF0FF3A0021B7F1004F0DF129
:100E700043088DF8431024D002202B23002F01DAE1
:100E80007F422D230A21021EA0F1010000DC5FB188
:100E900097FBF1FC97FBF1F201FB1C7C17460CF170
:100EA000300C08F801CDEEE7A8F1010003702188AD
:100EB000090501D5452100E06521A0F1010800F8F0
:100EC000011C09980FA9A1EB0807FF1D00B1012023
:100ED000411901EBEA70A1693844081A401EA0616B
:100EE0002078C00602D42046FFF75CFA099828B1A2
:100EF000D4E901219047206A401C20622078C00676
:100F000022D52046FFF74EFA1EE0002E04DBB34543
:100F100002DD01A8805D00E03020D4E90121904786
:100F2000206A401C2062761CAAF101005FEA000AD8
:100F30000AD100F035F9C0680168405CD4E90121AC
:100F40009047206A401C2062281EA5F10105DCDCC8
:100F500007E0D4E9012118F8010B9047206A401CF2
:100F60002062381EA7F10107F3DC2046FFF730FAB4
:100F7000032011B041E6000001694A1C02610878B3
:100F8000704700B58FB0CDE90131002105910549C9
:100F90007944CDE9031011466846FFF7D9FA0FB03E
:100FA00000BD0000E5FFFFFF0A6802F8010B0A60C0
:100FB0007047D1E900239A4202D2531C0B60107093
:100FC000704710B5436913B1AFF3008001E0FFF73C
:100FD00010FA012010BD127800F124010A700022DD
:100FE0004A700122EDE711684FF0FF32E9E7000097
:100FF0002DE9FF5F15468A460446DFF8AC80F844C9
:101000000027D8E900103E46CDE9001010E03AF87C
:1010100016106A4602A800F071FB411C07D0217827
:10102000890603D5E269391891420DD80744761C28
:101030002078800602D5E069B84205DDAE42E6DBE5
:101040003AF816000028E2D1A069C01BA061204632
:10105000FFF7A8F9D8E90010CDE90010002017E04B
:101060003AF818106A4602A800F048FBB0F1FF3FBA
:1010700081460BD000250DF1080B05E0D4E90121D4
:101080001BF8050090476D1C4D45F7D308F1010092
:10109000B0428046E4DB206A384420622046FFF7F5
:1010A00097F9BDE8FF9F0000DE6800002DE9F041E0
:1010B0008046D21D22F007020025D2E90002F52960
:1010C00015A614D0011E72F1000106DA0023D0EB40
:1010D000030063EB020211A608E0D8F800108B07AA
:1010E00001D50FA602E0490701D50EA6012511463C
:1010F000002408F1240704E000F074F830323A5577
:10110000641C50EA0102F7D12B4632462146404684
:10111000BDE8F041FFF7B3BC000000002D00000067
:101120002B0000002000000030B4002100F1240456
:1011300008E002F00705D208303542EA4372DB08C6
:101140006554491C52EA0305F3D10468002310A238
:10115000250707D5A40600D421B1C46901230DA237
:10116000641EC46130BCFFF78ABC10B5044621463A
:101170001068FFF77BFC02462046BDE810400023C4
:10118000D2E7D21D22F00701D1E90023CCE700000D
:101190000000000030000000004870478C03002071
:1011A00000487047AC030020004870478C030020C3
:1011B000034640688C46002818BF88423CBF03465F
:1011C0004068F8D318681844884207D00CF103002F
:1011D00020F00700001D411A521A0146081D0A603E
:1011E000FFF77BB830B5B0F10A024FEA900E71F10B
:1011F00000034EEA817EB0EB0E0061EB91014FEAF5
:10120000101E4EEA017E10EB0E0041EB11114FEA69
:10121000102E4EEA016E10EB0E0041EB11214FEA49
:10122000104E4EEA014E10EB0E0041EB11414018FA
:1012300041F100014FEAD00040EA41704FEAD1018C
:1012400010EB80054FEA810444EA907444EB0104FA
:101250006D1944EB0404521BA3414FF0000348BF37
:101260000A3200D530BD401C41F1000130BD000004
:101270002DE9F04F04460D46D21D22F0070089B03B
:10128000D0E900974846394603F0E9FC0246F80FDA
:1012900001D02D2307E02068810701D52B2302E030
:1012A000202101EAC0038DF820300BB1012000E0BD
:1012B0000020032A824601D0072A04DB2946204663
:1012C00000F054F93FE12078800601D40D2500E0BC
:1012D000E569C7F30A560D2D49DA00214FEA175B7D
:1012E00008464FF00000002F00F4400007DA00EB42
:1012F00080004FF4400100EBD07001EA60008115DE
:10130000012901DD4FF0FF3100224FEA850CBCF1CD
:10131000180F06D31346ACF118004FF08052C240AC
:1013200003E04FF4801323FA0CF30CF10C0CBCF126
:10133000200F04D3ACF1200C09FA0CF001E007FAFD
:101340000CF000294FF0004801DD18B90FE00ED174
:1013500040450CD319EB02095F4121B9404502D148
:101360009F4329EA0209BBEB175F00D0761C208857
:10137000000502D57B48784402E07A487844193861
:1013800008AA302302F80A30037C0AF10101002E7A
:101390000AF1020A53546A4602DC4FF0300101E0C0
:1013A0004FF031014FF001088DF8001002D0A6F285
:1013B000FF3603E059EA470100D06B4E002D02DCF6
:1013C0002178090704D54FF002082E218DF801106D
:1013D000C44600210BE0C7F303433F01C35C491C33
:1013E0006D1E02F80830052908F1010801DA002D08
:1013F000F1DC00210CE000EB1973491C1B786D1E19
:10140000082902F808304FEA091908F1010801DA41
:10141000002DF0DC21688B0602D516E0A8F101084A
:10142000E04505DD02EB080313F8013C302BF5D055
:10143000B8F1000F09DD02EB080313F8013C2E2B75
:1014400003D1090701D4A8F10108002D05DD3E21D3
:1014500002F808106D1E08F10108407C002E02F809
:10146000080008F1010804DA2D20764202F808008D
:1014700002E02B2002F808000A214FF47A7086421D
:1014800008F101080BDB96FBF0F3303302F808306B
:1014900096FBF0F308F1010800FB136601E0642EEF
:1014A0000CDB642096FBF0F3303302F8083096FB37
:1014B000F0F308F1010800FB136601E00A2E06DBD9
:1014C00096FBF1F0303002F8080008F1010896FBB5
:1014D000F1F001FB1060303002F80800A16908F15A
:1014E000010808EB050202EB0A00081AA061207847
:1014F000C00602D42046FEF755FF216A08AE01EB74
:101500000A00206204E0D4E9012116F8010B90479B
:10151000BAF1010AF7D22078C00602D52046FEF7BC
:1015200041FF6E4609E016F8010B3E280FD0D4E9C2
:1015300001219047206A401C2062B8F10108F2D2D4
:101540002046FEF745FF09B00320BDE8F08F206A72
:101550002844206203E0D4E90121302090476D1E29
:10156000EBD3F8E78965000002FCFFFF2DE9F041AD
:101570001F46044603260168072A01F4006004DBC5
:1015800008B116A505E016A503E008B115A500E011
:1015900015A521F010002060A069C01EA0610FB148
:1015A000401EA0612046FEF7FDFE4FB1D4E90121A7
:1015B00038469047206A401C2062C01C206206E02A
:1015C000206AFAE7D4E9012115F8010B9047761E4D
:1015D000F8D22046FEF7FCFEBDE8F0814E414E00F9
:1015E0006E616E00494E4600696E660010B5436933
:1015F00013B1AFF3008001E0FFF7FAFC012010BD4A
:10160000128800F1240182840022C2840122EDE7C5
:1016100011684FF0FF32E9E72DE9F04781461646A1
:101620008AB0354878440DC88DE80D0032487844BA
:10163000801C03AC0DC884E80D0041F69B300844C3
:10164000372190FBF1F290FBF1F5A5F1800501FB4C
:1016500012041B3C02D56442012000E00020DFF8A8
:1016600098A080460027FA44AAF1BE0A0EE0E007DF
:101670000AD03246684607EB470101230AEB810195
:1016800000F0B7FB8DE8070064107F1C002CEED142
:10169000194F7F44AE3F19E0E80715D007EB04105F
:1016A0000DF1180A90E80E008AE80E00C068F042BA
:1016B00001D1981908903246012306A903A800F029
:1016C00098FB03AB83E807006D10641C002DE3D189
:1016D0004FF0010332466946B8F1000F03A802D06B
:1016E00000F072FB01E000F084FBC9E90001C9F8D9
:1016F00008200AB0BDE8F0876C63000070B516469C
:101700000C460546FFF744F9036893F801010128E8
:1017100006D0FF2C0FD8185D68B101202C7070BD69
:10172000D3F807013246214603F207130344284643
:10173000BDE8704018474FF0FF3070BD10B500F0A5
:1017400039F8BDE8104000F02FB870477546FFF734
:1017500023FDAE4605006946534620F00700854646
:1017600018B020B5FEF778FDBDE820404FF0000628
:101770004FF000074FF000084FF0000B21F0070179
:10178000AC46ACE8C009ACE8C009ACE8C009ACE8BC
:10179000C0098D46704710B50446AFF3008020465F
:1017A000BDE81040FEF743BD002801D000F06AB844
:1017B0007047000010B5012805D0002103A000F0FB
:1017C00067F8012010BD09A1F8E70000534947520E
:1017D000544D454D3A204F7574206F662068656101
:1017E00070206D656D6F7279000000003A204865C9
:1017F0006170206D656D6F727920636F72727570A4
:10180000746564004FF0013C50F8042B51F8043B20
:101810009A4221D1A2EB0C03934313EACC1317D1C4
:1018200050F8042B51F8043B9A4215D1A2EB0C035B
:10183000934313EACC130BD150F8042B51F8043B1B
:101840009A4209D1A2EB0C03934313EACC13DBD0E9
:101850004FF00000704700BFD01A01BAB1FA81F111
:1018600001F0180122FA01F0CB40C1F12001DBB2F6
:10187000C0B2C01A2CFA01F3D11A914311EAC31174
:10188000E6D1704701491820ABBEFEE726000200F2
:1018900070B505460C460A2000E06D1C00F011F8FA
:1018A00035B128780028F8D102E0641C00F009F86E
:1018B00014B120780028F8D1BDE870400A20AFF3B9
:1018C000008008B569468DF800000320ABBE08BD56
:1018D0005FEA400C08BF91F0000F4FEA8C234FEAFB
:1018E000C12243EA51514FEA1C5018BF00F5F040A5
:1018F0004FEA300018BF41F000415FEA6C5C00F035
:101900002980BCF1FF3F08BF40F080407047130CB6
:1019100006BF12044FF0100C4FF0000C130E04BF62
:1019200012020CF1080C130F04BF12010CF1040C8D
:10193000930F04BF92000CF1020CD30F04BF5200AE
:101940000CF1010C11464FF00002A0F11F00A0EBBA
:101950000C00704711F0004F08BF704731F0004194
:101960003FF4D5AF0B0C06BF09044FF0100C4FF03D
:10197000000C0B0E04BF09020CF1080C0B0F04BF86
:1019800009010CF1040C8B0F04BF89000CF1020C4F
:10199000CB0F04BF49000CF1010CCCF12003A0EBEC
:1019A0000C0022FA03F302FA0CF241EA030100F1FF
:1019B0000100704720F07F4C80EA030023F07F474E
:1019C000ACEB070303F57C5300F0004003F1FF0389
:1019D0002DE980494FEA154B09B44FEA144325EA33
:1019E0000B4E24EA03480FF2042606EB132749089E
:1019F0003E785FEA320203FB0667C7F5000707FB84
:101A000006F64FEA54374FEAD64606F1020607FBC0
:101A1000066CCCF1005C4FEA1C472CEA074C07FB34
:101A200006F40CFB06F504EB15464FEA961634BF98
:101A300000204FF000404FEAD13706FB07FC4FEA89
:101A40001C4C0CFB0BF7D21B03FB0CF761EB0701E3
:101A50000CFB0EF7B0EB074072EB17420CFB08F7DC
:101A600034BFA2EB0742B2EB074261EB17414FEAEA
:101A70000C444FEA910706FB07FC4FEA1C4C0CFB99
:101A80000BF7B0EBC74072EB573203FB0CF734BFD8
:101A9000A2EBC742B2EBC74261EB57310CFB0EF72A
:101AA000B0EBC70072EB57720CFB08F734BFA2EB28
:101AB000C702B2EBC70261EB5771039F4FEA816126
:101AC00041EA921104EBCC044FEAD1374FEA82622B
:101AD00006FB07FC42EA90124FEA80604FEA1C4C7A
:101AE0000CFB0BF7D21B03FB0CF761EB07010CFBA4
:101AF0000EF7B0EB074072EB17420CFB08F734BF50
:101B0000A2EB0742B2EB074261EB17414FEA8C555B
:101B10004FEA910704EB9C2406FB07FC4FEA1C4CA0
:101B20000CFB0BF7B0EBC74072EB573203FB0CF723
:101B300034BFA2EBC742B2EBC74261EB57310CFB9B
:101B40000EF7B0EBC70072EB57720CFB08F734BF0F
:101B5000A2EBC702B2EBC70261EB577115EB4C2544
:101B60004FEA816141EA92114FEA82624FEAD1372E
:101B700042EA901206FB07FC44F100044FEA806041
:101B80004FEA1C4C0CFB0BF7D21B03FB0CF761EB71
:101B900007010CFB0EF7B0EB074072EB17420CFB92
:101BA00008F734BFA2EB0742B2EB074261EB1741E3
:101BB00015EB1C154FEA813141EA92414FEA82321E
:101BC00042EA90424FEA80304FEA0C7644F100043A
:101BD00048EA03434EEA0B484FF0000EB2EB080C04
:101BE00071EB030724BF624639464EEB0E0E4FF0F1
:101BF000000B0018524149414BEB0B0BB2EB080CA8
:101C000071EB03077BF1000B24BF624639464EEBB4
:101C10000E0E4FF0000B0018524149414BEB0B0BDD
:101C2000B2EB080C71EB03077BF1000B24BF62469B
:101C300039464EEB0E0E51EA020718BF46F0010678
:101C400016EB0E7655F1000254F1000103D5BDE804
:101C50008901BDE80088BDE88901BDE80048B619E2
:101C6000524141EB0101A3F10103704780807F7E67
:101C70007D7C7B7A79787776767574737271717002
:101C80006F6E6E6D6C6C6B6A6A69686867666665B4
:101C90006464636362616160605F5F5E5E5D5D5C42
:101CA0005C5B5B5A5A5959585857575656555555B3
:101CB0005454535352525251515050504F4F4F4E13
:101CC0004E4D4D4D4C4C4C4B4B4B4A4A4A49494961
:101CD00048484847474747464646454545444444A3
:101CE000444343434342424242414141002B9C46CC
:101CF00030D477002BD01CB54FEA370703B44FF030
:101D000010004FF01001BAF1000F06D0BCF1000F27
:101D1000DCBF40F0080040F008014FF000000FBCAD
:101D2000BDE810400BF1010BBBF1010F08BF5FEAEA
:101D3000170722BF12F1010211F101014FF000411A
:101D400043F1000300F0004043EA00007047F9D37C
:101D50005708D0E746EA064613F1400F4FEA164609
:101D60001FDD13F1200FDFBF16430A460021203389
:101D70005B42BED0C3F1200746EA064602FA07F7E7
:101D80004FEA164646EA0706C3F1200722FA03F295
:101D900001FA07F721FA03F14FF0000342EA0702C4
:101DA000A7E746EA020646EA06464FEA164646EA2C
:101DB0000106BCBF46EA0646360C4FF000034FF062
:101DC00000024FF0000194E72DE9804C9A469346BB
:101DD00070B491E8380007C831EA400C48BF34EAD3
:101DE000430C03D5FFF7E6FDFFF780FFF0BCBDE82D
:101DF000008C2DE9804C9A46934670B491E83800E7
:101E000007C810F0804F08BF13F0804F03D100F0D7
:101E100005F8FFF76BFFF0BCBDE8008C20F07F47B2
:101E200080EA030023F07F4C07EB0C03A3F57C53FF
:101E300000F00040A3F1FE0392F0000F00F0B38029
:101E400095F0000F00F077802DE901494FEA11402D
:101E50004FEA144621EA004800FB06FC24EA064744
:101E600008FB06F607FB08F800FB07F718EB064827
:101E70004CEB164C4FEA124B18EB07484FEA15464D
:101E80004CEB174022EA0B4E0BFB06FC25EA0647FB
:101E90000EFB06F607FB0EFE0BFB07F71EEB064ECE
:101EA0004CEB164C4FF000061EEB074E4CEB174B5D
:101EB00018EB0B0840F1000018EB0E0B58EB000874
:101EC00040F100008F1A4FF000013CBFC943661B70
:101ED00014BFB5EB040C00213CBFC943F61B4FEA0D
:101EE00017444EEA8E0E27EA04454FEA1C4704FBCE
:101EF00007622CEA074C05FB07F70CFB05F604FB11
:101F00000CFC16EB074642EB174216EB0C4642EB75
:101F10001C421BEB060658EB0202414146EA9E06B4
:101F200001D5BDE80189B619524141EB0101A3F188
:101F30000103BDE801894FEA14454FEA114724EA3D
:101F4000054621EA074C05FB07F406FB07F70CFBE7
:101F500006F105FB0CFC11EB074144EB17444FEA7B
:101F6000124711EB0C4144EB1C4422EA074C05FBE1
:101F700007F206FB07F70CFB06F605FB0CFC16EB5D
:101F8000074642EB174216EB0C4642EB1C456A181B
:101F900054F1000148BF7047B619524141EB0101AD
:101FA000A3F10103704795F0000F37D04FEA1142BB
:101FB0004FEA144721EA024624EA074C02FB07F1E4
:101FC00006FB07F70CFB06F402FB0CFC14EB0744C2
:101FD00041EB17414FEA154714EB0C4441EB1C4110
:101FE00025EA074C02FB07F506FB07F70CFB06F694
:101FF00002FB0CFC16EB074645EB174516EB0C46AF
:1020000045EB1C42121951F1000148BF7047B61947
:10201000524141EB0101A3F1010370474FEA14451E
:102020004FEA114724EA054621EA074C05FB07F170
:1020300006FB07F70CFB06F24FF0000605FB0CFC55
:1020400012EB074241EB174112EB0C4251EB1C41E2
:1020500048BF7047921841EB0101A3F1010370479B
:1020600021B1826842F00102826003E0826822F0BE
:1020700001028260704721B1826842F480728260FE
:1020800003E0826822F4807282607047014600207B
:102090008A6802F004020AB1012000E000207047C3
:1020A000014600208A6802F008020AB1012000E01F
:1020B0000020704730B502460020002350680F4CC6
:1020C00020400D790C6844EA052420435060906854
:1020D0000B4C2040D1E902542C434D7944EA45048D
:1020E00020439060D06A20F470000C7C641EE4B23F
:1020F000234340EA0350D06230BD0000FFFEF0FFF2
:10210000FDF7F1FFF0B504460D4600200021092D32
:1021100011DDE068A5F10A0606EB4607072606FA78
:1021200007F18843A5F10A0606EB460603FA06F115
:102130000843E0600CE0206905EB4507072606FA36
:1021400007F1884305EB450603FA06F108432061D1
:10215000072A0FDA606B561E06EB86071F2606FA63
:1021600007F18843561E06EB860605FA06F108437A
:10217000606322E00D2A0FDA206BD61F06EB86077C
:102180001F2606FA07F18843D61F06EB860605FAD6
:1021900006F10843206310E0E06AA2F10D0606EBA9
:1021A00086071F2606FA07F18843A2F10D0606EB03
:1021B000860605FA06F10843E062F0BD816841F049
:1021C00008018160704721B1826842F4A0028260F8
:1021D00003E0826822F4A00282607047816841F0C7
:1021E000040181607047000000B591B001214802F0
:1021F00002F004F90121042002F000F9012108464F
:1022000002F0DCF84FF4004002F0CCF800208DF82A
:1022100043000320ADF840008DF8420010A931487A
:1022200000F062FB0723012200212F48FFF76AFF1D
:102230000723022201212C48FFF764FF00200B90A6
:102240000E904FF460200D9001208DF831008DF834
:10225000300002208DF83C000BA92348FFF72AFF2D
:1022600021484C30009080150690002004901F48B3
:1022700001904FF48060079080200590002002902C
:10228000022003902020089000200A904FF48050F4
:1022900009906946164800F067F80121144800F0DB
:1022A00057F801211048FFF7E6FE01210E48FFF71D
:1022B000D7FE0D48FFF782FF00BF0B48FFF7F0FE87
:1022C0000128FAD00848FFF789FF00BF0648FFF74A
:1022D000DDFE0128FAD001210348FFF774FF11B099
:1022E00000BD000000080140002401405C00002007
:1022F0000800024010B54FF40061074800F08AFB67
:102300004FF48051044800F085FB4FF4005103481E
:1023100000F080FB10BD00000008014000100140EB
:1023200010B54FF40061074800F072FB4FF4805184
:10233000044800F06DFB4FF40051034800F068FBC7
:1023400010BD0000000801400010014000BFFEE782
:1023500021B1026842F00102026004E002684FF617
:10236000FE731A400260704710B50022026847F6FB
:10237000F0739A430C6A8B6823430C6923434C69BE
:1023800023438C692343CC6923434C6A23438C6ADF
:1023900023431A430260CB6843600B6883604B6839
:1023A000C36010BD10B50024002000F089F804E0DF
:1023B000601CC4B2012002F0D7FD10210E4800F0CD
:1023C0001EFB08B1C82CF3DBC82C01DB012010BDBB
:1023D000002404E0601CC4B2012002F0C5FD1021FD
:1023E000054800F00CFB08B9F02CF3DBF02C01DB06
:1023F0000120ECE70020EAE7000801402DE9F84F52
:1024000000F0C8F800F0B0F8FFF7CCFFCC2000F0E7
:10241000CDF8BE2000F0CAF800F094F8834600F032
:1024200091F80446072C08DDE043C4B26FEA0B00C4
:1024300000F0FF0B4FF0000A01E04FF0010AA14647
:102440004FEA09200FFA80F909EB0B000FFA80F927
:10245000484604F0F9FD009004F0CAFD074600224A
:10246000084B04F0B5FA054604F01CFA0FFA80F99F
:10247000BAF1000F02D04846BDE8F88FC9F100005C
:1024800000B2F9E70000E43F08B50121042001F0A3
:10249000B5FF1020ADF800008DF8030003208DF883
:1024A00002006946054800F01FFA1021034800F0B9
:1024B000B1FA00F059F8FFF775FF08BD00080140B8
:1024C00038B504460121042001F098FF4CB11020DA
:1024D000ADF8000003208DF8020010208DF80300F5
:1024E00005E01020ADF8000004208DF803006946D7
:1024F000014800F0F9F938BD0008014010B501208D
:10250000FFF7DEFF10210E4800F082FA022002F0F1
:102510002BFD10210A4800F07DFA0020FFF7D0FFC4
:102520000C2002F021FD1021054800F068FA08B1E6
:10253000012400E00024322002F016FD204610BDE8
:102540000008014070B50026012508E0FFF7D6FF1E
:102550000446E00140EA6600C6B2681CC5B2082D18
:10256000F4DD304670BD000010B50120FFF7A8FF74
:102570001021074800F04CFA40F2EE2002F0F4FC83
:102580001021034800F046FA0F2002F0EDFC10BDC8
:102590000008014010B5FFF7E7FFFFF703FFCC206D
:1025A00000F004F8442000F001F810BD70B50446B6
:1025B0000120FFF785FF012522E004F001066410E9
:1025C00076B11021104800F023FA022002F0CCFC72
:1025D00010210D4800F01EFA3C2002F0C5FC0DE071
:1025E0001021094800F014FA3C2002F0BDFC102133
:1025F000054800F00FFA022002F0B6FC681CC5B2D4
:10260000082DDADD70BD00000008014070470000B1
:1026100010B54FF400710348FEF76DF90020024930
:10262000088010BD8C0100208400002070B5054694
:10263000002400BF00F03EF980B90DA10E48FEF75E
:1026400067F8044654B13A212046FEF745F804469F
:1026500014B1641C204670BD0020FCE7052002F088
:102660005DFC681E85B2002DE4DC0020F3E700006D
:102670004950442C000000008C01002010B5FFF7E9
:10268000C7FF28A1294802F0A3FA03E04FF4FA702B
:1026900002F044FC26A127A000F0BCF80028F5D1E8
:1026A00026A1224802F094FA03E04FF4FA7002F0F7
:1026B00035FC1FA124A000F0ADF80028F5D126A11B
:1026C0001A4802F085FA03E04FF4FA7002F026FC93
:1026D00017A125A000F09EF80028F5D126A11348E7
:1026E00002F076FA03E04FF4FA7002F017FC25A12D
:1026F00026A000F08FF80028F5D12EA10B4802F09B
:1027000067FA03E04FF4FA7002F008FC2DA12FA045
:1027100000F080F80028F5D138A1044802F058FAFA
:1027200010BD0000312E2041540D0A00004400402D
:102730004F4B000041540D0A00000000322E204390
:10274000574D4F44450D0A0041542B43574D4F44BC
:10275000453D310D0A000000332E2041542B4357D4
:10276000444843500D0A000041542B43574448430A
:10277000503D312C310D0A00342E2043574A415030
:102780000D0A0000474F54204950000041542B438C
:10279000574A41503D225869616F6D695F3132334C
:1027A000343536222C22313233343536373838310D
:1027B000220D0A00352E2043495053544152540DE6
:1027C0000A000000434F4E4E4543540041542B43F2
:1027D000495053544152543D22544350222C226DAF
:1027E000717474732E6865636C6F7564732E636F98
:1027F0006D222C313838330D0A000000362E20456A
:1028000053503832363620496E6974204F4B0D0ACA
:10281000000000002DE9F04104460D46C826204680
:10282000FDF788FF87B23A4621460D4802F0FEF9CF
:102830000FE000F03FF848B929460A48FDF768FF65
:1028400020B1FFF7E5FE0020BDE8F0810A2002F08C
:1028500065FB301EA6F10101CEB2EAD10120F3E7FB
:10286000003801408C01002070B588B004460D4648
:102870000126FFF7CDFE2A4608A16846FDF77CFD3C
:102880000AA16846FFF7C6FF28B92A46214608482C
:1028900002F0CCF90026304608B070BD41542B43FD
:1028A000495053454E443D25640D0A003E0000004A
:1028B000003801400A48008808B9012070470848DC
:1028C000008808490988884203D10020044908800B
:1028D000F4E703480088034908800120EEE7000080
:1028E00084000020860000202DE9F04102460025EA
:1028F0000026002000230024002791F803C00CF0DC
:102900000F0591F803C00CF0100CBCF1000F03D0C0
:1029100091F802C04CEA050591F800C0BCF1000F27
:1029200031D0146800202BE04FF0010C0CFA00F3BA
:10293000B1F800C00CEA03069E4220D183004FF09C
:102940000F0C0CFA03F7BC4305FA03FC4CEA040431
:1029500091F803C0BCF1280F06D14FF0010C0CFA1E
:1029600000FCC2F814C00AE091F803C0BCF1480FA3
:1029700005D14FF0010C0CFA00FCC2F810C0401C4D
:102980000828D1D31460B1F800C0BCF1FF0F34DDCA
:10299000546800202EE000F1080C4FF0010808FAFE
:1029A0000CF3B1F800C00CEA03069E4221D183006B
:1029B0004FF00F0C0CFA03F7BC4305FA03FC4CEA8A
:1029C000040491F803C0BCF1280F05D100F1080CF4
:1029D00008FA0CF8C2F8148091F803C0BCF1480F53
:1029E00007D100F1080C4FF0010808FA0CF8C2F802
:1029F0001080401C0828CED35460BDE8F081024608
:102A0000002093680B400BB1012000E000207047CC
:102A100041617047016170470AB1016100E04161A5
:102A20007047000008B50121042001F0E7FC1020E8
:102A30008DF803004FF4C050ADF8000003208DF86E
:102A4000020069460C48FFF74FFF4FF4C0510A4897
:102A5000FFF7E0FF0121102001F0D0FC4FF40050FF
:102A6000ADF8000069460548FFF73EFF4FF40051FE
:102A70000248FFF7CFFF08BD0008014000100140E9
:102A800000BFFEE708B54FF480710748FDF733FF3C
:102A900006480088009006480388064802880649D0
:102AA0000148FDF769FC08BD8C00002040000020B3
:102AB0003000002022000020D479000810B5044620
:102AC000207B012802D12068FDF707FC0020206050
:102AD0006060A060207310BD0246002301230DE05A
:102AE00002F07F000870D2092AB1087840F0800017
:102AF0000870491C01E0184670475B1C042BEFDD91
:102B00004FF0FF30F8E770B504460E460025206808
:102B100098B9012020733046FDF7B0FB2060206893
:102B2000E0B100206060A66003E000202168485505
:102B30006D1CA068A842F8D810E00220207303E0C2
:102B40000020216848556D1CA068A842F8D80020D4
:102B50006060A068B04201D20020206070BD00001B
:102B60002DE9FF5F07460D4690463846FDF7E2FD2A
:102B700086B22846FDF7DEFD1FFA80FA4FF0000905
:102B8000F01DFDF77BFB04461CB9012004B0BDE835
:102B9000F09FF11D2046FDF7AEFE12A001682160F6
:102BA0008088A080324639462046FDF79FFD2846A2
:102BB000FDF7C0FD83460120002100915B462A46B7
:102BC000CDE90208019121460A2000F05FF910B911
:102BD0004FF0000901E04FF001092046FDF77DFBB1
:102BE0004846D3E724637273702F00002DE9FF4F2E
:102BF00083B082468B469146159C002500200290AA
:102C00000F2701904846FDF795FD0FFA80F8B9F1BE
:102C1000000F03D1012007B0BDE8F08F08F10200DA
:102C2000384487B2109808B145F00205129878B17F
:102C300045F004051298FDF77DFDC0B2029013988F
:102C4000FDF778FD01460298001D0844384487B21C
:102C5000119820B1012804D0022808D104E000BF57
:102C600007E045F00C0504E045F0140501E0022002
:102C7000D1E700BF149808B145F02405BAF1000F60
:102C800002D0BBF1000F01D10320C4E745F0C0051D
:102C90005046FDF74FFD06465846FDF74BFD3044C4
:102CA000001D384487B239462046FFF72CFF2068C4
:102CB00008B90420AFE739462068FDF71CFE102153
:102CC0006268501C606020688154D4E90023D118E8
:102CD000781FFFF701FF00B201900198002804DA85
:102CE0002046FFF7EBFE052095E761680198084450
:102CF000606000216268501C60602068815404217B
:102D00006268501C6060206881544D216268501CCC
:102D100060602068815451216268501C60602068A6
:102D2000815454216268501C60602068815462683C
:102D3000501C60602068815404216268501C6060EF
:102D4000206881546168481C60602068455406987A
:102D5000010A6268501C6060206881540698C1B204
:102D60006268501C606020688154C8F30721626863
:102D7000501C6060206881546268501C606020684C
:102D800000F80280D4E90012881842464946FDF74F
:102D9000ADFC60684044606005F00400B8B30026F4
:102DA000139808B938A013901298FDF7C3FC86B2A7
:102DB000310A6268501C6060206881546268501C4F
:102DC000606020688654D4E900128818324612994F
:102DD000FDF78CFC6068304460601398FDF7AAFC36
:102DE00086B2310A6268501C606020688154626853
:102DF000501C606020688654D4E90012881832465E
:102E00001399FDF773FC60683044606000BF05F003
:102E10008000C8B15046FDF78DFC86B2310A626869
:102E2000501C6060206881546268501C606020689B
:102E30008654D4E90012881832465146FDF756FCF4
:102E400060683044606000BF05F04000C8B158467B
:102E5000FDF770FC86B2310A6268501C6060206821
:102E600081546268501C606020688654D4E9001266
:102E7000881832465946FDF739FC60683044606076
:102E800000BF0020C7E60000000000002DE9FF4F52
:102E900083B0834617469946139C002500260020E0
:102EA000029001908046BBF1000F03D1012007B0D2
:102EB000BDE8F08F00260AE00498805D232803D047
:102EC0000498805D2B2801D10220F0E7761C04983D
:102ED000805D0028F0D148F03008119808B148F022
:102EE000010806EB0900851C109820B1012804D0C8
:102EF00002280AD105E000BF09E048F00208AD1C35
:102F000005E048F00408AD1C01E00320CFE700BF56
:102F10008FB33878022821D14FF0000A00BF504605
:102F20000AF1010A385C7D28F9D1AAF1030A0AF1F5
:102F3000070002900298A9EB000AE81CA0EB0A0126
:102F40002046FFF7E0FD206808B90420AFE7EA1C3F
:102F5000A2EB0A012068FDF7CEFC19E0691D2046AE
:102F6000FFF7D1FD206808B90420A0E7691D20689B
:102F7000FDF7C1FC0CE0FFE7691D2046FFF7C3FD2C
:102F8000206808B9042092E7691D2068FDF7B3FCAA
:102F90006168481C6060206800F80180D4E9000284
:102FA00081182846FFF798FD01900198002804DA5F
:102FB0002046FFF783FD052079E761680198084402
:102FC0006060C6F307216268501C6060206881540D
:102FD0006268501C606020688654D4E9001288182A
:102FE00032460499FDF782FB6068304460601098B7
:102FF00060B14FEA1B216268501C606020688154F8
:103000006268501C6060206800F802B0C7B1387870
:1030100002280BD1D4E9001288183946029AFDF72C
:10302000F3FB616802980844606009E0D4E900128B
:1030300088184A463946FDF7E7FB606848446060F7
:10304000002034E770B505460C4604212046FFF702
:103050005AFD206808B9012070BD70216268501CBB
:1030600060602068815402216268501C60602068A2
:10307000815429126268501C606020688154626823
:10308000501C6060206885540020E5E770B5054657
:103090000C4604212046FFF736FD206808B90120C0
:1030A00070BD62216268501C6060206881540221FA
:1030B0006268501C60602068815429126268501C4C
:1030C0006060206881546268501C6060206885548C
:1030D0000020E5E72DE9FF5F8046174699460E9CE4
:1030E0000026B246B3460025B8F1000F03D10120F7
:1030F00004B0BDE8F09F0BE057F8250008B90220A6
:10310000F6E757F82500FDF715FB0644681CC5B225
:103110004D45F1DB09EB4900801C00EB060A0AF182
:1031200005012046FFF7EFFC206808B90320DFE720
:1031300082216268501C606020688154D4E90002DA
:1031400081185046FFF7C8FC0FFA80FBBBF1000F57
:1031500004DA2046FFF7B2FC0420C9E7606858444F
:1031600060604FEA18216268501C606020688154DA
:103170006268501C6060206800F80280002524E02E
:1031800057F82500FDF7D6FA0646C6F30721626810
:10319000501C6060206881546268501C6060206828
:1031A0008654D4E90023D01857F825103246FDF78D
:1031B0009DFA6068304460600198C1B26268501C3A
:1031C000606020688154681CC5B24D45D8DB002082
:1031D0008EE7F0B504460D46264601230020106018
:1031E000002114E0775C07F07F07106807FB0300FD
:1031F0001060705C00F0800008B9481CF0BDDB0175
:10320000B3F5001F02D36FF00100F7E7491CA94294
:10321000E8DB4FF0FF30F1E72DE9F84380460C463C
:1032200015461E462F2108F10600FDF755FA074600
:103230000020009017B90120BDE8F8837F1C6A4682
:10324000042108F10100FFF7C4FF2520FDF716F85F
:103250002060206808B90220EEE725212068FDF7EC
:103260004AFB242239462068FDF7CEFA243700981D
:103270002C3830803188481CFDF700F82860286819
:1032800020B92068FDF729F80320D5E73288511CC2
:103290002868FDF730FB328839462868FDF7B4FA14
:1032A0000020C9E701464878022801D00120704774
:1032B000887810B18878012801D1C878F7E7FF2015
:1032C000F5E700002DE9FC5F81460D4614461E46D9
:1032D000DDE90C8B99F8000000F00F0A0020019046
:1032E0000AF008000090CAF341008BF8000001AA20
:1032F000042109F10100FFF76CFF4844471C0198C5
:10330000022802D30AF0010010B1FF20BDE8FC9FA3
:103310007878397840EA012020802088801C019943
:10332000884201D9FF20F1E754A1B81CFDF7F0F95C
:1033300008B10F20EAE79BF8000020B101283DD03A
:10334000022877D13BE0009808B1FF20DEE7218812
:10335000481CFCF793FF2860286808B9FF20D5E7D0
:103360002288511C2868FDF7C6FA2288B91C2868F3
:10337000FDF74AFA0198801E2188401AA8F800003B
:10338000B8F80010481CFCF779FF3060306820B9AD
:103390002868FCF7A2FFFF20B8E7B8F80020511C0E
:1033A0003068FDF7A8FAB8F80020B4F800C0BB1CDC
:1033B0000CEB03013068FDF727FA4FE000BF2088CF
:1033C000801C0199884201D9FF209FE72088C01CFA
:1033D000395C2088801C385C41EA00210E9801800D
:1033E0000E9808B9FF2091E72188481CFCF746FF9A
:1033F0002860286808B9FF2088E72288511C2868BF
:10340000FDF779FA2288B91C2868FDF7FDF90198C3
:10341000001F2188401AA8F80000B8F80010481CC6
:10342000FCF72CFF3060306828B92868FCF755FF9E
:10343000FF206BE710E0B8F80020511C3068FDF762
:103440005AFAB8F80020B4F800C03B1D0CEB030199
:103450003068FDF7D9F901E0FF2057E700BF2B21C5
:103460002846FDF739F920B923212846FDF734F91C
:1034700008B1FF204AE7002048E700002463726596
:103480007100000001464878022801D001207047F1
:10349000887820B9C8780A2801D10020F7E70120F0
:1034A000F5E701464878022801D001207047887866
:1034B00020B9C8780A2801D10020F7E70120F5E7F4
:1034C00001464878022801D001207047887820B949
:1034D000C8780A2801D10020F7E70120F5E7024665
:1034E0005078022801D0012070479078B0EB112F5E
:1034F00005D1D078CBB2984201D10020F4E7012069
:10350000F2E70000F8B50446FF2720780511012DE9
:1035100001DB0E2D01DD3846F8BD032D24D100203E
:1035200000906A460421601CFFF753FE2044461CAD
:103530000098022803D3207800F0010008B1FF2092
:10354000EAE77078317840EA0120801C00998842CF
:1035500001D9FF20E0E706A1B01CFDF7D9F808B1BA
:103560000F2700E0032700E02F463846D4E700008D
:1035700024637265710000000146FF208A78A2B9B9
:10358000CA78142A11D10A7932B1012A05D0022A47
:1035900004D0802A06D103E000BF00BF002003E072
:1035A000012001E0022000BF00BF7047014601205A
:1035B0008A781AB9CA781E2A00D10020704700BF45
:1035C000FEE7704770B5002100230F22C47804B3D2
:1035D000154C246804F4E064C4F5E064210AC1F1E8
:1035E0000403CA40447804FA03F184781440214368
:1035F00009010E4C0678A155047804F01F0501243A
:10360000AC4005786D11AD0005F1E025C5F800412D
:1036100009E0047804F01F050124AC40044D06784D
:10362000761145F8264070BD0CED00E000E400E0A6
:1036300080E100E002490143024A11607047000046
:103640000000FA050CED00E010B500F04FF816A2EE
:103650000121084600F0A8F9FFF710F800F046F83D
:1036600015A20121084600F09FF902E0322001F086
:1036700055FC00F0E3F90028F8D100F037F812A269
:103680000121084600F090F90121134800F052FE94
:1036900000F02CF811A20121084600F085F9002065
:1036A0001149087010BD00003832363620636F6E45
:1036B0006E6563742E2E2E00436F6E6E204F6E6506
:1036C0004E65742E2E2E00004F6E654E657420538D
:1036D00075622E2E2E0000000000002052656164ED
:1036E000792E2E2E000000004400002070B500242A
:1036F0000EE00021204600F0E9F8002504E000205B
:1037000000F082F9681CC5B2802DF8DB601CC4B2E1
:10371000082CEEDB70BD70B5002406E0002500E04B
:103720006D1CB5F57A7FFBD3641CB4F57A7FF5D3B5
:1037300000F052F8AE2000F04BF9D52000F048F927
:10374000802000F045F9A82000F042F93F2000F069
:103750003FF9D32000F03CF9002000F039F9402077
:1037600000F036F9A12000F033F9C82000F030F95C
:10377000DA2000F02DF9122000F02AF9812000F063
:1037800027F9CF2000F024F9D92000F021F9F12009
:1037900000F01EF9DB2000F01BF9302000F018F9D2
:1037A000A42000F015F9A62000F012F98D2000F0F9
:1037B0000FF9142000F00CF9AF2000F009F9FFF721
:1037C00095FF70BD10B50246012000E050430B1E6E
:1037D000A1F10101FAD110BD08B50121042000F0CA
:1037E0000DFE0121082000F009FE10208DF80300D5
:1037F00003208DF802004FF48050ADF800006946B8
:103800001E48FFF771F84FF40050ADF8000069460C
:103810001A48FFF769F84FF48040ADF80000694698
:103820001648FFF761F84FF40040ADF80000694614
:103830001248FFF759F84FF48070ADF80000694660
:103840000F48FFF751F800224FF480510B48FFF763
:10385000E3F8012251030948FFF7DEF80122910342
:103860000648FFF7D9F80122D1030448FFF7D4F83E
:10387000012211020248FFF7CFF808BD000C0140F9
:103880000008014070B50546002419E08020204161
:10389000284008B1012000E0002002464FF400510A
:1038A0000948FFF7B9F8012211030748FFF7B4F8F8
:1038B00000224FF480510448FFF7AEF8601CC4B2F8
:1038C000082CE3DB70BD0000000C014070B505461C
:1038D0000C4645F0B00000F07BF8102141EA1410CE
:1038E00000F076F804F00F0000F072F870BD0000F0
:1038F0002DE9F04105460E461746721ED206110EFE
:103900006A1E5206100EFFF7E1FF002409E0A7F13E
:103910002001134A02EB0111085D00F075F8601CEC
:10392000C4B2082CF3DB721ED206110E6A1E0123EC
:1039300003EB4202D0B2FFF7C9FF00240BE0A7F16E
:103940002001074A02EB011204F10801505C00F06B
:103950005BF8601CC4B2082CF1DBBDE8F08100000C
:10396000257200082DE9F04780460E4617461D4691
:10397000002415E0281B411E0A20FFF723FFB7FB98
:10398000F0F00A21B0FBF1F201FB120000F1300966
:103990003019C1B24A464046FFF7AAFF601CC4B2C4
:1039A000AC42E7DBBDE8F0872DE9F04107460E4663
:1039B0001546002407E02A5D3019C1B23846FFF7EA
:1039C00097FF601CC4B2285D0028F4D1BDE8F081E7
:1039D00010B5044600224FF480710948FFF71CF827
:1039E00000224FF400410748FFF716F82046FFF782
:1039F00049FF012211020248FFF70EF810BD000036
:103A000000080140000C014010B5044600224FF4AC
:103A100080710848FFF700F80122D1030648FEF73D
:103A2000FBFF2046FFF72EFF012211020148FEF79F
:103A3000F3FF10BD00080140000C014070B58AB0D2
:103A4000002006900790089009900026012532A0DA
:103A5000334B34A236A10090424801F0B9F806A8D1
:103A6000002102910391CDE90410084601210B02C7
:103A700029A2CDE900102A492AA0FFF7B7F80028AB
:103A800042D1079A91B20698FEF7EEFEFA20FEF7B1
:103A9000CDFD0446002C33D02046FFF733FD02282D
:103AA0002ED12046FFF7FEFB062823D2DFE800F0E8
:103AB00003090E13181D2CA12A4801F089F80025CE
:103AC0001DE02EA1274801F083F818E032A1254817
:103AD00001F07EF813E039A1224801F079F80EE0F8
:103AE0003EA1204801F074F809E045A11D4801F00D
:103AF0006FF804E04DA11B4801F06AF800BF00BF59
:103B000006A8FEF7DBFF03E04FA1164801F060F8BE
:103B100028460AB070BD0000746573740000000090
:103B2000287A0008374A52485A39637133380000FE
:103B30004F6E654E65745F4465764C696E6B0D0A19
:103B400050524F49443A2025732C09544F4B454E4F
:103B50003A2025732C2044455649443A25730D0AD2
:103B60000000000000440040546970733A09C1AC81
:103B7000BDD3B3C9B9A60D0A000000005741524E8B
:103B80003A09C1ACBDD3CAA7B0DCA3BAD0ADD2E963
:103B9000B4EDCEF30D0A00005741524E3A09C1ACC4
:103BA000BDD3CAA7B0DCA3BAB7C7B7A8B5C4636C06
:103BB00069656E7469640D0A000000005741524E39
:103BC0003A09C1ACBDD3CAA7B0DCA3BAB7FECEF1E7
:103BD000C6F7CAA7B0DC0D0A000000005741524EDC
:103BE0003A09C1ACBDD3CAA7B0DCA3BAD3C3BBA743
:103BF000C3FBBBF2C3DCC2EBB4EDCEF30D0A000095
:103C00005741524E3A09C1ACBDD3CAA7B0DCA3BAE2
:103C1000B7C7B7A8C1B4BDD328B1C8C8E7746F6B24
:103C2000656EB7C7B7A8290D0A0000004552523A81
:103C300009C1ACBDD3CAA7B0DCA3BACEB4D6AAB46E
:103C4000EDCEF30D0A0000005741524E3A094D5196
:103C500054545F5061636B6574436F6E6E6563743B
:103C6000204661696C65640D0A000000F0B589B0FA
:103C700005460C4601260020059006900790089006
:103C800023462A4612A11A4800F0A2FF2046FCF75C
:103C900051FD074605A80121002200923B46CDE9CF
:103CA00001210390224629460A20FFF7EFF858B970
:103CB000069A91B20598FEF7D7FD08B9002600E0F4
:103CC000012605A8FEF7FAFE304609B0F0BD000057
:103CD0005075626C69736820546F7069633A20256F
:103CE000732C204D73673A2025730D0A00000000E5
:103CF000004400402DE9F14FC2B000203E903F90BB
:103D0000409041903D903C903B903A9000263990F5
:103D10000027349033904298FFF7F4FB0646F01EDC
:103D20000D287CD2DFE800F02BFAF9F8F77BF67B60
:103D3000F57B7B7B07003AAB3DAA3CA94298FFF795
:103D40006BFA0746D7B9BDF8E8000090BDA1C64898
:103D5000DDE93C2300F03CFF3EAADDE93C01FEF733
:103D6000FFFE58B9C1A1C04800F032FF3F9A91B29E
:103D70003E98FEF779FD3EA8FEF7A0FE4EE1C14851
:103D800039A93AAA3DABCDE9002102903BAA3CA952
:103D90004298FFF797FA0746002F16D1BDF8E800C2
:103DA0003D99CDE90010BDF8EC30B7A1AE483C9A82
:103DB00000F00EFF3D9801F02FF88046B8F1000F9B
:103DC00004D1C0A1A84800F003FFBFE0C9A140464C
:103DD00001F002F83890389800287DD0C7A13898B3
:103DE00000F0FAFF3790C7A1389800F0F5FF369041
:103DF000C6A1389800F0F0FF8146C6A1389800F0BF
:103E0000EBFF8246C5A1389800F0E6FF3590C5A1CA
:103E1000389800F0E1FF8346C4A1389800E0FAE04A
:103E200000F0DAFF0546379810B13798406901E095
:103E3000C04800683290369810B13698406901E069
:103E4000BD4800683190B9F1000F02D0D9F81400D4
:103E500001E0BA4800683090BAF1000F02D0DAF8F9
:103E6000140001E0B64800682F90359810B13598DD
:103E7000406901E0B34800682E90BBF1000F02D00A
:103E8000DBF8140001E0B04800682D9000202C9071
:103E900035B1E868012801D12C9001E000202C9078
:103EA000DDE92F10CDE90001A8A16F48DDE931322D
:103EB00000F08EFE2C980090B0A16B48DDE92D3209
:103EC00000F086FE9B49329808609B493198086053
:103ED0009A493098086000E010E099492F980860EE
:103EE00098492E98086098492D9808602C9808B138
:103EF000012000E00020AA49087000BFA9A14046A7
:103F000000F06AFF0446002C1CD0E068042819D198
:103F100005E072E063E059E03CE021E017E0A2A197
:103F20001AA8FCF729FAACA101A82269FCF724FA27
:103F300001A91AA8FFF79AFE01AAB1A14A4800F008
:103F400047FE00BF404600F01BFF00BF66E04298FE
:103F5000FFF798FA18B9B3A1434800F039FE5DE0C5
:103F60004298FFF7ADFAA0B9B6A13F4800F030FE85
:103F70003EA90A20FFF78AF858B9B8A13A4800F0DC
:103F800027FE3F9A91B23E98FEF76EFC3EA8FEF7E0
:103F900095FD43E03B4801884298FFF7A0FAA0B99D
:103FA000B4A1314800F014FE3EA90A20FFF74AF8F8
:103FB00058B9B6A12C4800F00BFE3F9A91B23E983A
:103FC000FEF752FC3EA8FEF779FD27E04298FFF786
:103FD00068FA18B9B4A1244800F0FAFD1EE042982E
:103FE000FFF7CAFA20B9B6A11F4800F0F1FD03E0BF
:103FF000BAA11D4800F0ECFD10E04298FFF7D6FA98
:1040000020B9BDA1184800F0E3FD03E0C1A11648A6
:1040100000F0DEFD02E04FF0FF3700BF00BFFEF70B
:10402000F7FA781C10B943B0BDE8F08F0F2E01D01D
:10403000032E05D13C98FCF750F93D98FCF74DF95B
:1040400000BFF0E7636D6469643A2025732C207229
:1040500065713A2025732C207265715F6C656E3A2C
:104060002025640D0A00000000440040546970736C
:104070003A0953656E6420436D64526573700D0A8E
:104080000000000088000020746F7069633A2025EA
:10409000732C20746F7069635F6C656E3A202564C1
:1040A0002C207061796C6F61643A2025732C20702C
:1040B00061796C6F61645F6C656E3A2025640D0AEE
:1040C000000000004572726F723A20634A534F4EEF
:1040D000205061727365204661696C6564212043DC
:1040E0006865636B20486561705F53697A65210D6F
:1040F0000A000000706172616D73000050685F4CCF
:104100000000000050685F480000000054656D5FCB
:104110004C00000054656D5F480000004C69675F0B
:104120004C0000004C69675F480000005761726EE8
:10413000696E6700080000200C00002010000020BD
:1041400014000020180000201C0000205061727331
:1041500065204F4B212050685F4C3A25642C20503D
:10416000685F483A25642C2054656D5F4C3A25649D
:104170002C2054656D5F483A256400004C69675FE8
:104180004C3A25642C204C69675F483A25642C2002
:104190005761726E696E673A25640D0A000000006F
:1041A0002000002069640000247379732F374A527D
:1041B000485A39637133382F746573742F74686982
:1041C0006E672F70726F70657274792F7365745F8C
:1041D0007265706C790000007B226964223A2225A6
:1041E00073222C22636F6465223A3230302C226DA8
:1041F0007367223A2273756363657373227D0000CF
:10420000546970733A2053656E642041434B204FCC
:104210004B21207061796C6F61643A2025730D0A1F
:1042200000000000546970733A094D5154542050F5
:1042300075626C6973682053656E64204F4B0D0A7C
:1042400000000000546970733A0952657620507579
:10425000626C6973685265630D0A0000546970737B
:104260003A0953656E64205075626C6973685265D3
:104270006C0D0A00546970733A09526576205075C6
:10428000626C69736852656C0D0A00005469707342
:104290003A0953656E64205075626C697368436FA8
:1042A0006D700D0A00000000546970733A09526580
:1042B00076205075626C697368436F6D700D0A00EB
:1042C000546970733A094D515454205375627363A5
:1042D00072696265204F4B0D0A00000054697073CB
:1042E0003A094D5154542053756273637269626583
:1042F000204572720D0A0000546970733A094D51DD
:10430000545420556E537562736372696265204F11
:104310004B0D0A00546970733A094D51545420559D
:104320006E537562736372696265204572720D0A1D
:104330000000000070B586B004460D46002600203F
:10434000029003900490059007E054F826200DA1F8
:10435000124800F03DFC701CC6B2AE42F5DB02A86C
:104360002B462246002100901420FEF7B3FE38B9F8
:10437000039A91B20298FEF777FA02A8FEF79EFB25
:1043800006B070BD53756273637269626520546FC5
:104390007069633A2025730D0A0000000044004054
:1043A0007047000001460020034A506820F4404056
:1043B00008435060704700000010024029B1064ACF
:1043C00052690243044B5A6104E0034A5269824332
:1043D000014B5A61704700000010024029B1064AA3
:1043E000D2690243044BDA6104E0034AD269824392
:1043F000014BDA61704700000010024029B1064A03
:1044000092690243044B9A6104E0034A9269824331
:10441000014B9A61704700000010024030B5002146
:104420000022002400232D4D6D6805F00C0121B100
:10443000042905D0082923D105E0294D056022E093
:10444000274D05601FE0254D6D6805F47012234D62
:104450006D6805F48034022505EB92421CB9214DAC
:10446000554305600BE01D4D6D6805F400351DB129
:104470001C4D5543056002E0194D5543056002E0AF
:10448000174D056000BF00BF144D6D6805F0F001C9
:104490000909154D6B5C0568DD4045600F4D6D6881
:1044A00005F4E061090A104D6B5C4568DD408560EC
:1044B0000A4D6D6805F46051C90A0B4D6B5C456887
:1044C000DD40C560054D6D6805F44041890B074D21
:1044D0006B5CC568B5FBF3F5056130BD00100240AB
:1044E00000127A0000093D006400002074000020E2
:1044F000704710B500F002F810BD00000CB50020A8
:10450000019000903348006840F4803031490860E1
:1045100000BF3048006800F4003000900198401C53
:104520000190009818B90198B0F5A06FF1D1294811
:10453000006800F4003010B10120009001E000207C
:1045400000900098012843D12348006840F01000F3
:10455000214908600846006820F00300086008460A
:10456000006840F0020008601A4840681949486035
:104570000846406848600846406840F480604860EB
:104580000846406820F47C1048600846406840F4C3
:10459000E81048600846006840F08070086000BF7E
:1045A0000C48006800F000700028F9D00948406805
:1045B00020F00300074948600846406840F00200C8
:1045C000486000BF0348406800F00C000828F9D19B
:1045D0000CBD00000010024000200240042808D159
:1045E0004FF0E021096941F004014FF0E022116130
:1045F00007E04FF0E021096921F004014FF0E022CB
:10460000116170477047000010B51348006840F012
:1046100001001149086008464068104908400E49E9
:104620004860084600680E4908400B490860084683
:10463000006820F4802008600846406820F4FE00EE
:1046400048604FF41F008860FFF753FF4FF0006091
:104650000449086010BD0000001002400000FFF88F
:10466000FFFFF6FE08ED00E010B50121880700F01D
:104670002BF8012805D1034908800121800700F0AB
:1046800014F810BD4200002010B50121044800F0CC
:104690001BF8012803D10121014800F006F810BDE4
:1046A00000040040CA4302827047CA430282704736
:1046B00021B1028842F00102028004E002884FF634
:1046C000FE731A400280704730B502460020002376
:1046D0000024158A05EA0103958905EA010413B14E
:1046E0000CB1012000E0002030BD10B500F062F8F0
:1046F00010BD1AB183890B43838102E083898B4308
:104700008381704701894FF6F8721140018170472B
:10471000002202881D4B98420ED01D4B98420BD0B0
:10472000B0F1804F08D01B4B984205D01A4B9842ED
:1047300002D01A4B984204D14FF68F731A404B881F
:104740001A43174B984207D0164B984204D04FF6A5
:10475000FF431A40CB881A4302808B8883850B88DD
:1047600003850A4B98420BD0094B984208D00E4B58
:10477000984205D00D4B984202D00D4B984201D182
:104780000B7A03860123838270470000002C0140CE
:10479000003401400004004000080040000C0040CC
:1047A000001000400014004000400140004401405F
:1047B000004801401FB501210846FFF70FFE4FF0EA
:1047C0008040FFF79FFF0020ADF80A00ADF806001B
:1047D00042F20F70ADF8080041F61F40ADF804003A
:1047E00000208DF80C0001A94FF08040FFF790FFEA
:1047F00001218807FFF756FF012211469007FFF7B6
:1048000078FF4FF4A060FEF715FF1C208DF8000024
:1048100001208DF8030002208DF8010001208DF8A1
:1048200002006846FEF7CEFE01218807FFF740FF31
:104830001FBD000010B540F225510E4800F050F8A1
:10484000B8B10D480088B0F5007F02D300200A49B6
:1048500008800848001D0088C1B207480288008807
:10486000401C054B1880054881542021014800F068
:1048700015F810BD00380140840000208C01002094
:1048800010B540F22551044800F02AF818B1202153
:10489000014800F003F810BD0044004001F400722C
:1048A000B2F5007F00D100BFCA430280704721B13A
:1048B000828942F40052828104E082894DF6FF73BE
:1048C0001A408281704702460020B1F5007F00D176
:1048D00000BF13880B400BB1012000E0002070479F
:1048E00070B50246002400230025002040F66A1619
:1048F000B14200D100BFC1F3421501F01F030126F0
:1049000006FA03F3012D02D19689334006E0022D09
:1049100002D1168A334001E0968A33400C120126F8
:1049200006FA04F41688344013B10CB1012000E0FB
:10493000002070BDF0B503460024002600250020AD
:1049400040F66A17B94200D100BF1846C1F34214BD
:1049500001F01F06012707FA06F5012C01D10C30E2
:1049600004E0022C01D1103000E014301AB10768C5
:104970002F43076002E00768AF430760F0BD000007
:104980002DE9F04786B005460E460024A24600BF3A
:10499000A1460027B08900B100BF2F462C8A4CF6F3
:1049A000FF700440F08804432C82AC894EF6F3106B
:1049B0000440B08831890843718908430443AC81BD
:1049C000AC8A4FF6FF400440B0890443AC8201A892
:1049D000FFF724FD1F48874202D1DDF810A001E057
:1049E000DDF80CA0A88900F4004040B10AEBCA0031
:1049F00000EB0A1031684900B0FBF1F807E00AEB60
:104A0000CA0000EB0A1031688900B0FBF1F864209D
:104A1000B8FBF0F004012009642101FB1089A8898A
:104A200000F4004040B1322000EBC900B0FBF1F0CF
:104A300000F00700044308E0322000EB0910642175
:104A4000B0FBF1F000F00F0004432C8106B0BDE88C
:104A5000F087000000380140C1F3080282807047EF
:104A600000BFFEE710B586B0044601210420FFF721
:104A7000C5FC01218803FFF7C1FC18208DF8170041
:104A80004FF40070ADF8140003208DF8160005A94E
:104A90002048FDF729FF04208DF817000002ADF82B
:104AA000140003208DF8160005A91A48FDF71CFF15
:104AB00001940020ADF810000C20ADF80E0000208D
:104AC000ADF80C00ADF80A00ADF8080001A91248D5
:104AD000FFF756FF01211048FFF7E9FE40210E487D
:104AE000FFF7DCFE012240F225510B48FFF722FFC1
:104AF00025208DF8000001208DF8030000208DF89E
:104B0000010002208DF802006846FEF75BFD06B04A
:104B100010BD0000000801400038014010B586B00B
:104B2000044601210420FFF769FC01214804FFF736
:104B300055FC18208DF817000420ADF81400032050
:104B40008DF8160005A92048FDF7CEFE04208DF84B
:104B500017000820ADF8140003208DF8160005A9F1
:104B60001948FDF7C1FE01940020ADF810000C209B
:104B7000ADF80E000020ADF80C00ADF80A00ADF85D
:104B8000080001A91148FFF7FBFE01210F48FFF7BC
:104B90008EFE40210D48FFF781FE012240F2255193
:104BA0000A48FFF7C7FE26208DF8000001208DF887
:104BB000030000208DF801008DF802006846FEF722
:104BC00001FD06B010BD0000000801400044004097
:104BD0000FB430B5CBB0054601AC50A800904FF4EF
:104BE000947101A8009B4F9AFBF7ACFB002000904A
:104BF0000BE014F8011B2846FFF72EFF00BF4021F1
:104C00002846FFF760FE0028F9D020780028F0D170
:104C10004BB030BC5DF814FB10B54FF4E130FFF73A
:104C200021FF4FF4E130FFF779FF10BD2DE9F0418E
:104C300007460C46154600260DE014F8011B3846C1
:104C4000FFF70AFF00BF40213846FFF73CFE00286F
:104C5000F9D0701C86B2AE42EFDBBDE8F0814900AE
:104C600050EAC12018BF04204A0D18BF40F00100CF
:104C700040F2FF72B2EB515F08BF40F00200012822
:104C800008BF052070472DE9F0414F1E00EBC7011A
:104C90000446D1E9000115461E4637F006020DD044
:104CA0002A46334601F094FE7F1E04EBC703D3E986
:104CB000002301F0E3FB37F00602F1D1022F25D0EB
:104CC000042F13D0062F18BFBDE8F0812A463346C3
:104CD00001F07EFED4E90A2301F0D0FB2A463346D8
:104CE00001F076FED4E9082301F0C8FB2A463346DA
:104CF00001F06EFED4E9062301F0C0FB2A463346DC
:104D000001F066FED4E9042301F0B8FB2A463346DD
:104D100001F05EFED4E9022301F0B0FB2A463346DF
:104D200001F056FED4E90023BDE8F04101F0A6BB36
:104D3000002213461046014901F05CBC0000F03F20
:104D400001F09CBB002213461046114601F052BCF4
:104D500040F2013200204FF0E04102F009BA0000B9
:104D6000024A0020110702F003BA000001FDFFFF14
:104D700030380A2801D20120704700207047000017
:104D800070B5044622E02568A08900F4807020B93F
:104D9000A06810B1A068FFF7F3FFA08900F480704D
:104DA00028B9206918B10B49206909688847A0898A
:104DB00000F4007028B9206A18B10649206A096811
:104DC000884720460349096888472C46002CDAD1D9
:104DD00070BD00008000002070B505460E46AC682E
:104DE00000E024682CB13146206A00F04FF800281A
:104DF000F7D1204670BD000010B52820054909688C
:104E0000884704461CB128212046FBF796FD204622
:104E100010BD00007C00002010B5044600221146A1
:104E2000204600F001F810BD2DE9F04780460D4600
:104E300016460024FFF7E0FF0746002012490860ED
:104E40000FB9BDE8F087404601F0BCFA81464946FB
:104E5000384600F06DFD044624B93846FFF790FF50
:104E60000020EEE766B1204601F0ACFA0446207857
:104E700030B13846FFF784FF034804600020E0E7C4
:104E800005B12C603846DCE77800002070B5044698
:104E90000D462CB9AC4201D0012070BD0020FCE7CA
:104EA0000DB90120F9E705E0207808B90020F4E702
:104EB000641C6D1C2078FBF737FA06462878FBF750
:104EC00033FA8642F0D02078FBF72EFA064628788F
:104ED000FBF72AFA301AE0E710B56FF00400FFF78D
:104EE0007DFB0A4800680A49B0FBF1F009490870E7
:104EF0000846007800EB4001C1EBC0104FF6FF718F
:104F000001EAC0000449088010BD000048000020EC
:104F100000127A0060000020620000200146114A61
:104F200012884A434FF0E0235A6100229A611A46E0
:104F3000126942F001021A6100BF4FF0E0221069CD
:104F400000F001021AB100F48032002AF5D04FF0CF
:104F5000E022126922F001024FF0E0231A610022E0
:104F60009A617047620000200146114A12784A4354
:104F70004FF0E0235A6100229A611A46126942F00A
:104F800001021A6100BF4FF0E022106900F0010237
:104F90001AB100F48032002AF5D04FF0E0221269F5
:104FA00022F001024FF0E0231A6100229A6170475B
:104FB00060000020FEF7AFFBFFF78EFFFFF795FBC9
:104FC000FDF712F9FDF72EFDFFF726FE88A201215D
:104FD0000846FEF7E9FC04E089A201210846FEF735
:104FE000E3FCFDF751FA0028F6D14FF47A70FFF791
:104FF00095FFFEF729FBFAE0FDF700FA0A2190FB86
:10500000F1F08349088083A201210220FEF7CCFC45
:1050100003237F48028807210220FEF7A3FC7F4973
:10502000088801F085FC064600227D4B01F0E2FA7B
:1050300004464FF066327B4B01F0CAFC7A4A03C249
:1050400079480CC879487A4901F0C2FC0446794A8B
:10505000794B01F013FA744A03C20022774B72496C
:1050600003C901F0B3FD03D2002074496E4A03C2A4
:10507000002213466C4903C901F06EFC03D20020E4
:10508000694A1060506000226D4B674903C901F006
:105090009FFC044601F006FC6A4908806AA20121CF
:1050A0000320FEF781FC674800880A2190FBF1F499
:1050B0000223224606210320FEF754FC64A20821A5
:1050C0000320FEF771FC5F4800880A2190FBF1F293
:1050D00001FB12040123224609210320FEF742FCB2
:1050E0004E49488801F024FC04465A4A5A4B01F0C4
:1050F0006FFC5A4A03C2594903C901F0D3FB58490E
:10510000088058A201210420FEF74EFC03235448D6
:10511000028807210420FEF725FC4A4800885349ED
:10512000096888421DDB4748008851490968884260
:1051300017DC374800884F490968884211DB34483A
:1051400000884D49096888420BDC454800884B4976
:105150000968884205DB4248008849490968884255
:1051600002DDFDF7DDF801E0FDF7C4F845480088F1
:10517000012830D1FDF786FC43494448FEF776FD0F
:1051800058B143480078401C4149087008460278ED
:1051900040A14648FFF71CFD02E000203C49087092
:1051A000FDF736FA00203749088039480078012891
:1051B00011DBFEF79BFA3EA201210846FEF7F4FB45
:1051C0003FA201210220FEF7EFFB4FF47A70FFF7B8
:1051D000A5FEFEF739FA0220FDF728FA3C490860DF
:1051E0000846006818B108460068FEF783FD03E72B
:1051F0004473313862323020496E69742E2E2E008D
:1052000044733138623230204572726F7200000090
:105210002200002054656D703A0000005C00002000
:105220000000B04066660A402800002087A757CAE1
:10523000320417C08195438B6CA7304000002C408E
:105240000000244030000020205068203A00000078
:105250002E0000006A408CF06CF0A13F3800002066
:10526000400000204C6967203A0000000800002040
:105270000C00002010000020140000201800002066
:105280001C000020420000208C000020FC7100085F
:105290004400002053656E64204572726F722120B5
:1052A000436F756E743A2025640D0A000044004077
:1052B000436F6E6E656374204C6F73742100000041
:1052C0005265636F6E6E656374696E672E2E2E0075
:1052D000040000202DE9F04705460C4620785B28A5
:1052E00004D0264804600020BDE8F0870520E8606F
:1052F000601C01F067F8044620785D2801D1601C2D
:10530000F2E7FFF779FD0646A860A86808B9002013
:10531000EAE7204601F056F880464146304600F064
:1053200007FB074601F04EF804460CB90020DBE706
:1053300017E0FFF761FD071E00D1D5E737607E60FB
:105340003E46601C01F03EF881464946304600F07A
:10535000EFFA804601F036F804460CB90020C3E7A6
:1053600000BF20782C28E4D020785D2801D1601C73
:10537000BAE7024804600020B6E700007800002089
:10538000014600220878302806DB0878392803DC3B
:1053900008783038024415E00878412806DB0878A0
:1053A000462803DC0878373802440BE00878612887
:1053B00006DB0878662803DC08785738024401E0E9
:1053C000002070471201491C0878302806DB087855
:1053D000392803DC08783038024415E00878412881
:1053E00006DB0878462803DC0878373802440BE0EF
:1053F0000878612806DB0878662803DC08785738C7
:10540000024401E00020DCE71201491C0878302842
:1054100006DB0878392803DC08783038024415E0C8
:105420000878412806DB0878462803DC08783738F6
:1054300002440BE00878612806DB0878662803DC64
:1054400008785738024401E00020BAE71201491CED
:105450000878302806DB0878392803DC08783038EB
:10546000024415E00878412806DB0878462803DC6A
:105470000878373802440BE00878612806DB0878A2
:10548000662803DC08785738024401E0002098E7DA
:10549000104696E72DE9F04F8BB083468A460020F0
:1054A000044605460026674F002188468946099034
:1054B000012008909AF800002D2802D1624F0AF1CD
:1054C000010A9AF80000302801D10AF1010A9AF87D
:1054D0000000312822DB9AF8000039281EDC00BFCA
:1054E0001AF8011BA1F1300001F00BFA0022574B12
:1054F000CDE906012046294601F06AFACDE904010A
:10550000DDE9062300F0BAFF04460D469AF80000D4
:10551000302803DB9AF800003928E1DD9AF8000012
:105520002E2830D19AF8010030282CDB9AF801009F
:10553000392828DC0AF1010A00BF1AF8011BA1F181
:10554000300001F0DEF90022404BCDE90601204693
:10555000294601F03DFACDE90401DDE9062300F01A
:105560008DFF04460D460022364B4046494601F069
:1055700055FC804689469AF80000302803DB9AF8EB
:1055800000003928D9DD9AF80000652803D09AF880
:105590000000452823D10AF1010A9AF800002B28BF
:1055A00002D10AF1010A08E09AF800002D2804D17E
:1055B0004FF0FF3008900AF1010A08E01AF8010BD9
:1055C0003038099901EB810100EB410009909AF80C
:1055D0000000302803DB9AF800003928EEDDDDE911
:1055E000082101FB02F001F08CF942464B46CDE95F
:1055F000000100F043FF02460B46CDE90201002006
:10560000124900F0F3F922462B46CDE90601304657
:10561000394601F0DDF9CDE90401DDE9062301F0A9
:10562000D7F904460D46CBE906452046294601F048
:1056300039F9CBF814000320CBF80C0050460BB01E
:10564000BDE8F08F0000F03F0000F0BF00002440F4
:105650002DE9F04706460C4620787B2804D04048C8
:1056600004600020BDE8F0870620F060601C00F0B8
:10567000A9FE044620787D2801D1601CF2E7FFF7DF
:10568000BBFB0546B060B06808B90020EAE72046D9
:1056900000F098FE80464146284600F063F8074631
:1056A00000F090FE04460CB90020DBE72869286270
:1056B0000020286120783A2803D02948046000207F
:1056C000D0E7601C00F07EFE80464146284600F090
:1056D0002FF9074600F076FE04460CB90020C1E71A
:1056E00031E0FFF789FB071E00D1BBE72F607D602B
:1056F0003D46601C00F066FE81464946284600F0A3
:1057000031F8804600F05EFE04460CB90020A9E79F
:10571000286928620020286120783A2803D01048A0
:10572000046000209EE7601C00F04CFE8146494664
:10573000284600F0FDF8804600F044FE04460CB90F
:1057400000208FE700BF20782C28CAD020787D2841
:1057500001D1601C86E702480460002082E7000057
:10576000780000202DE9F05F8346884608F10104A7
:10577000002798F80000222805D06A48C0F8008069
:105780000020BDE8F09F04E014F8011B5C2900D163
:10579000641C2078222804D0207810B1781C071EC1
:1057A000F2D1781C6049096888478146B9F1000F39
:1057B00001D10020E5E708F101044D469EE0207884
:1057C0005C2804D014F8010B05F8010B96E0641C6A
:1057D0002078722818D006DC622809D066280BD001
:1057E0006E287DD10CE0742812D07528F9D113E011
:1057F000082005F8010B7FE00C2005F8010B7BE089
:105800000A2005F8010B77E00D2005F8010B73E085
:10581000092005F8010B6FE0601CFFF7B1FD06469B
:10582000241DB6F55C4F02D3B6F5604F00D306B920
:1058300062E0B6F5584F1CD3B6F55C4F19D26078CC
:105840005C2802D1A078752800D055E0E01CFFF755
:1058500097FD8246A41DBAF55C4F02D3BAF5604F9E
:1058600000D349E0C6F30901504661F39F2000F5DB
:1058700080360427802E01D2012708E0B6F5006F9C
:1058800001D2022703E0B6F5803F00D203273D4452
:10589000012F20D0022F15D0032F0AD0042F24D19E
:1058A00006F0BF0040F08001681E05460170B60991
:1058B00000BF06F0BF0040F08001681E0546017081
:1058C000B60900BF06F0BF0040F08001681E054623
:1058D0000170B60900BF1548C05D3043C1B200E099
:1058E00006E0681E0546017000BF00BF3D4403E0AE
:1058F000207805F8010B00BF00BF641C2078222827
:1059000003D0207800287FF45AAF00202870207838
:10591000222800D1641CCBF810900420CBF80C0096
:1059200020462EE7780000207C0000201578000833
:1059300070B505460C460CB9002070BD042224A1A8
:105940002046FAF716FF18B90220E860201DF4E798
:10595000052221A12046FAF70CFF18B90020E860C3
:10596000601DEAE704221EA12046FAF702FF20B9D3
:105970000120E8606861201DDFE72078222804D13B
:1059800021462846FFF7EEFED7E720782D2805D0E0
:105990002078302807DB2078392804DC2146284687
:1059A000FFF778FDC9E720785B2804D12146284617
:1059B000FFF790FCC1E720787B2804D121462846D8
:1059C000FFF746FEB9E7084804600020B5E700008D
:1059D0006E756C6C0000000066616C736500000001
:1059E0007472756500000000780000202DE9F04D0C
:1059F0001D460C4698B0174621F0004123F00043A5
:105A0000002814BF4FF0010C4FF0000C0CEB440CBD
:105A1000FE4A0CEB02064FEA620C66452BD33E00B1
:105A200018BF012606EB45061644F94A964222D3D2
:105A3000F84A53EA070C02D0944205D148B918B08D
:105A400000201146BDE8F08D002808BF4FF0000C83
:105A500001D04FF0010C0CEB440212F5001F0AD8E4
:105A6000002F14BF4FF0010C4FF0000C0CEB45025F
:105A700012F5001F07D918B03A462B462146BDE85B
:105A8000F04DFFF75DB90022DFF88CA3002CB8BF02
:105A9000534526DADFF884C36345A8BF022220DA23
:105AA000DFF870C39C451CDCDFF874C30CEB235C8F
:105AB000BCF1140F08DDCCF1340627FA06FC0CFA11
:105AC00006F6BE420DD108E05FB9CCF1140623FA08
:105AD00006FC0CFA06F69E4203D10CF00102C2F15C
