:020000040800F2
:10000000600E002089010008ED0600087706000850
:10001000E9060008C10400083F13000800000000C2
:10002000000000000000000000000000A90C000813
:100030004D050008000000002D0C0008950D00087B
:10004000A3010008A3010008A3010008A301000800
:10005000A3010008A3010008A3010008A3010008F0
:10006000A3010008A3010008A3010008A3010008E0
:10007000A3010008A3010008A3010008A3010008D0
:10008000A3010008A3010008A3010008A3010008C0
:10009000A3010008A3010008A3010008A3010008B0
:1000A000A3010008A3010008A3010008A3010008A0
:1000B000F90D00089D100008A3010008A301000825
:1000C000A3010008A3010008A3010008A301000880
:1000D000A301000859120008A3010008A3010008A9
:1000E000A3010008A3010008A301000800F002F822
:1000F00000F03AF80AA090E8000C82448344AAF188
:100100000107DA4501D100F02FF8AFF2090EBAE885
:100110000F0013F0010F18BFFB1A43F0010318473B
:10012000D0240000F0240000103A24BF78C878C121
:10013000FAD8520724BF30C830C144BF04680C60ED
:10014000704700000023002400250026103A28BF35
:1001500078C1FBD8520728BF30C148BF0B60704739
:100160001FB51FBD10B510BD00F033F81146FFF7E5
:10017000F7FF01F0E8F800F051F803B4FFF7F2FFE1
:1001800003BC01F0DEF80000094880470948004739
:10019000FEE7FEE7FEE7FEE7FEE7FEE7FEE7FEE737
:1001A000FEE7FEE704480549054A064B7047000094
:1001B000990D0008ED00000860080020600E002086
:1001C000600A0020600A002070477047704770473F
:1001D0007047754600F02CF8AE4605006946534658
:1001E00020F00700854618B020B5FFF7DBFFBDE81B
:1001F00020404FF000064FF000074FF000084FF08E
:10020000000B21F00701AC46ACE8C009ACE8C0091E
:10021000ACE8C009ACE8C0098D46704710B504468B
:10022000AFF300802046BDE81040FFF7A6BF0000F6
:10023000004870470008002021B1826842F00102A6
:10024000826003E0826822F001028260704721B17F
:10025000826842F48072826003E0826822F48072D5
:1002600082607047014600208A6802F004020AB1E9
:10027000012000E000207047014600208A6802F05B
:1002800008020AB1012000E00020704730B50246A4
:100290000020002350680F4C20400D790C6844EA80
:1002A00005242043506090680B4C2040D1E9025453
:1002B0002C434D7944EA450420439060D06A20F4F1
:1002C00070000C7C641EE4B2234340EA0350D06209
:1002D00030BD0000FFFEF0FFFDF7F1FFF0B5044672
:1002E0000D4600200021092D11DDE068A5F10A0668
:1002F00006EB4607072606FA07F18843A5F10A062A
:1003000006EB460603FA06F10843E0600CE02069BC
:1003100005EB4507072606FA07F1884305EB450676
:1003200003FA06F108432061072A0FDA606B561EB4
:1003300006EB86071F2606FA07F18843561E06EBD2
:10034000860605FA06F10843606322E00D2A0FDAFB
:10035000206BD61F06EB86071F2606FA07F1884397
:10036000D61F06EB860605FA06F10843206310E067
:10037000E06AA2F10D0606EB86071F2606FA07F1D2
:100380008843A2F10D0606EB860605FA06F108433E
:10039000E062F0BD816841F008018160704721B1E1
:1003A000826842F4A002826003E0826822F4A00224
:1003B00082607047816841F00401816070470000ED
:1003C00000B591B00121480200F05EFC012104203B
:1003D00000F05AFC0121084600F036FC4FF40040C2
:1003E00000F026FC00208DF843000120ADF840000D
:1003F00003208DF8420010A92D4800F0A8F807232B
:10040000012200212B48FFF769FF00200B900E907E
:100410004FF460200D9001208DF831008DF83000F0
:100420008DF83C000BA92348FFF730FF21484C30E2
:10043000009080150690002004901F4801904FF412
:10044000806007908020059000200290012003909A
:100450002020089000200A904FF4805009906946AF
:10046000164800F055F80121144800F045F8012124
:100470001048FFF7ECFE01210E48FFF7DDFE0D48A6
:10048000FFF788FF00BF0B48FFF7F6FE0128FAD000
:100490000848FFF78FFF00BF0648FFF7E3FE01287B
:1004A000FAD001210348FFF77AFF11B000BD000028
:1004B00000080140002401402C00002008000240F8
:1004C00000BFFEE70021002009E0094A1278121A55
:1004D00002F07F02074B53F822201144401C802871
:1004E000F3DB0A46C81701EB5060C0F3CF1070472A
:1004F000020000203802002021B1026842F001020F
:10050000026004E002684FF6FE731A400260704712
:1005100010B50022026847F6F0739A430C6A8B68A4
:1005200023430C6923434C6923438C692343CC69DF
:1005300023434C6A23438C6A23431A430260CB68EB
:1005400043600B6883604B68C36010BD70472DE942
:10055000F041024600250026002000230024002749
:1005600091F803C00CF00F0591F803C00CF0100CCB
:10057000BCF1000F03D091F802C04CEA050591F8D8
:1005800000C0BCF1000F31D0146800202BE04FF008
:10059000010C0CFA00F3B1F800C00CEA03069E420D
:1005A00020D183004FF00F0C0CFA03F7BC4305FA7F
:1005B00003FC4CEA040491F803C0BCF1280F06D1F7
:1005C0004FF0010C0CFA00FCC2F814C00AE091F8DC
:1005D00003C0BCF1480F05D14FF0010C0CFA00FC30
:1005E000C2F810C0401C0828D1D31460B1F800C074
:1005F000BCF1FF0F34DD546800202EE000F1080C40
:100600004FF0010808FA0CF3B1F800C00CEA030639
:100610009E4221D183004FF00F0C0CFA03F7BC432C
:1006200005FA03FC4CEA040491F803C0BCF1280F5E
:1006300005D100F1080C08FA0CF8C2F8148091F802
:1006400003C0BCF1480F07D100F1080C4FF00108BE
:1006500008FA0CF8C2F81080401C0828CED3546069
:10066000BDE8F08141617047016170470AB10161E5
:1006700000E04161704700BFFEE7000008B50121BE
:10068000102000F001FB4FF40050ADF800001020E6
:100690008DF8030003208DF8020069461148FFF72A
:1006A00056FF4FF400510F48FFF7DCFF4FF4804036
:1006B000ADF8000069460B48FFF749FF4FF4804151
:1006C0000848FFF7CFFF4FF40040ADF8000069463F
:1006D0000448FFF73CFF4FF400410248FFF7C2FF18
:1006E00008BD00000010014000BFFEE77047000099
:1006F00070B5002100230F22C47804B3154C246880
:1007000004F4E064C4F5E064210AC1F10403CA40C2
:10071000447804FA03F184781440214309010E4C13
:100720000678A155047804F01F050124AC40057833
:100730006D11AD0005F1E025C5F8004109E0047830
:1007400004F01F050124AC40044D0678761145F8ED
:10075000264070BD0CED00E000E400E080E100E028
:1007600002490143024A1160704700000000FA0587
:100770000CED00E02DE9F0410646002114E0474A67
:1007800002EBC1121278464B5A54002209E0434B47
:1007900003EBC114531CE35C404C04EBC114A354A1
:1007A000521C7F2AF3DB491C0629E8DB002106E006
:1007B00000223A4B03EBC11383F87F20491C062922
:1007C000F6DB06EB46021101CA1701EB12521213B7
:1007D000C2F12F0030285FDA324A1268811A0029EC
:1007E00001DB0A4600E04A42022A36DB2D4909684D
:1007F000884203DD2B490C68054602E029490D6853
:100800000446214626E0CF1701EB5777FF10DFF8AB
:100810008CC00CEBC71797F87F700B464FEAE17C52
:1008200001EB5C7C4FEAEC0CA1EBCC084FF0010C27
:100830000CFA08FC47EA0C070A464FEAE17C01EB98
:100840005C7C4FEAEC0CDFF8548008EBCC1C8CF895
:100850007F70491CA942D6DB00BF12490860C3174C
:1008600000EB5373DB100D4C04EBC31393F87F3094
:100870000246C41700EB5474E410A0EBC405012435
:10088000AC4023430146C41700EB5474E410034DFD
:1008900005EBC41484F87F30BDE8F08138040020F3
:1008A000200000202800002070B500240EE0002168
:1008B000204600F0F4F8002504E0002000F0A6F93E
:1008C000681CC5B2802DF8DB601CC4B2082CEEDBBE
:1008D00070BD000008B50121082000F0D5F91420F2
:1008E0008DF8030003208DF802004FF48070ADF8FE
:1008F000000069460A48FFF72AFE4FF40070ADF881
:10090000000069460648FFF722FE01221102044852
:10091000FFF7ACFE012251020148FFF7A7FE08BD18
:10092000000C014070B50546002419E080202041EC
:10093000284008B1012000E0002002464FF4007179
:100940000E48FFF793FE012211020C48FFF78EFEBE
:1009500000224FF480710948FFF788FE601CC4B282
:10096000082CE3DB012211020448FFF77FFE00227E
:100970004FF480710148FFF779FE70BD000C014013
:1009800010B5012251020A48FFF770FE0122110240
:100990000748FFF76BFE00224FF400710448FFF791
:1009A00065FE00224FF480710148FFF75FFE10BD25
:1009B000000C014010B500224FF400710648FFF70B
:1009C00055FE012211020448FFF750FE0122510298
:1009D0000148FFF74BFE10BD000C014070B500242C
:1009E00006E0002500E06D1CB5F57A7FFBD3641CA2
:1009F000B4F57A7FF5D3FFF76DFFAE2000F0F6F87F
:100A0000D52000F0F3F8802000F0F0F8A82000F0E6
:100A1000EDF83F2000F0EAF8D32000F0E7F80020DE
:100A200000F0E4F8402000F0E1F8A12000F0DEF84A
:100A3000C82000F0DBF8DA2000F0D8F8122000F02F
:100A4000D5F8812000F0D2F8CF2000F0CFF8D920DF
:100A500000F0CCF8F12000F0C9F8DB2000F0C6F877
:100A6000302000F0C3F8A42000F0C0F8A62000F069
:100A7000BDF88D2000F0BAF8142000F0B7F8AF20D0
:100A800000F0B4F8FFF710FF70BD10B5024601206A
:100A900000E050430B1EA1F10101FAD110BD70B569
:100AA00005460C4645F0B00000F0A0F8102141EAE0
:100AB000141000F09BF804F00F0000F097F870BDE0
:100AC0002DE9F04105460E461746721ED206110E5C
:100AD0006A1E5206100EFFF7E2FF002409E0A7F19C
:100AE0002001134A02EB0111085D00F08FF8601C31
:100AF000C4B2082CF3DB721ED206110E6A1E01234B
:100B000003EB4202D0B2FFF7CAFF00240BE0A7F1CB
:100B10002001074A02EB011204F10801505C00F0C9
:100B200075F8601CC4B2082CF1DBBDE8F081000050
:100B3000FE1F00082DE9F04780460E4617461D4669
:100B4000002415E0281B411E0A20FFF79EFFB7FB7B
:100B5000F0F00A21B0FBF1F201FB120000F13009C4
:100B60003019C1B24A464046FFF7AAFF601CC4B222
:100B7000AC42E7DBBDE8F08770B500242EE000252D
:100B800029E07DB91748005D00B923E0E9B2A21C55
:100B9000D0B2FFF784FF144901EBC411485D00F0A7
:100BA00035F816E0104800EBC411681E085C0E49C9
:100BB00001EBC411495D884200D10BE0E9B2A21CEF
:100BC000D0B2FFF76CFF084901EBC411485D00F09B
:100BD0001DF800BF6D1C802DD3DB641C062CCEDB02
:100BE00070BD0000200000203804002010B504462D
:100BF000FFF7C6FE7820FFF795FE0020FFF792FE74
:100C00002046FFF78FFEFFF7D5FE10BD10B5044656
:100C1000FFF7B6FE7820FFF785FE4020FFF782FE43
:100C20002046FFF77FFEFFF7C5FE10BD70470000AE
:100C300001460020034A506820F4404008435060B9
:100C4000704700000010024029B1064A5269024371
:100C5000044B5A6104E0034A52698243014B5A61D2
:100C6000704700000010024029B1064AD2690243D1
:100C7000044BDA6104E0034AD2698243014BDA6132
:100C8000704700000010024029B1064A92690243F1
:100C9000044B9A6104E0034A92698243014B9A61D2
:100CA0007047000000100240704710B500F002F8D5
:100CB00010BD00000CB50020019000903348006882
:100CC00040F480303149086000BF3048006800F4CB
:100CD000003000900198401C0190009818B90198CC
:100CE000B0F5A06FF1D12948006800F4003010B1D0
:100CF0000120009001E0002000900098012843D1DD
:100D00002348006840F01000214908600846006848
:100D100020F0030008600846006840F00200086008
:100D20001A484068194948600846406848600846C3
:100D3000406840F4806048600846406820F47C10B9
:100D400048600846406840F4E8104860084600687B
:100D500040F08070086000BF0C48006800F0007030
:100D60000028F9D00948406820F00300074948608E
:100D70000846406840F00200486000BF03484068F1
:100D800000F00C000828F9D10CBD00000010024052
:100D9000002002407047000010B51348006840F082
:100DA00001001149086008464068104908400E4992
:100DB0004860084600680E4908400B49086008462C
:100DC000006820F4802008600846406820F4FE0097
:100DD00048604FF41F008860FFF767FF4FF0006026
:100DE0000449086010BD0000001002400000FFF838
:100DF000FFFFF6FE08ED00E02DE9F05F0121880716
:100E000000F074F901287DD191480088401C904978
:100E100008809048006800F051FE07468E4A8F4BCC
:100E200000F0CEFA054600F099FA8A4908608C492C
:100E3000088800F0D6FB07468A480CC8384600F000
:100E40001FFC054600F070FB814909887F2291FB59
:100E5000F2F302FB1311844A42F821007C4909880D
:100E60007F2291FBF2F302FB13117F4A52F82120FB
:100E700077490988491E7F2391FBF3F503FB151180
:100E8000794B53F82110501800EBD0714910704A7B
:100E900012887F2392FBF3F503FB1522734B43F873
:100EA00022106F49088800F09CFB07466D480CC86B
:100EB000384600F0E5FB054600F066FB8346042358
:100EC0005A460D210120FFF735FE614800887F2139
:100ED00090FBF1F201FB1200644951F820502846C2
:100EE000FFF748FCFFF748FEFFF7ECFA8246584848
:100EF000007800F07F005D4931F8200084B254484A
:100F0000007800E0A2E0401E00F07F0031F82000F1
:100F10001FFA80F909F10300844205DD5448007886
:100F2000401C5349087002E00020514908705148A4
:100F300001684848006800F0EDFF05464E4900F0A2
:100F4000B8FF02D200204D4908604D48007890BBA0
:100F500047480078042832DB544530DD00214548FD
:100F6000006800F0A6FF17D24248016839480068BF
:100F700000F0D0FF0746384600F0A0FD05464FF0D0
:100F80006632404B00F07AFC05D239463E4800F00C
:100F90002FFE3A49086000BF2E48006835490860B6
:100FA000012037490870002031490870374800781F
:100FB00010B9012001E002E00020344908703048F7
:100FC000007820B14C4502DA00202D4908702B48EA
:100FD000006800F0CFFE054603232A46012108469B
:100FE000FFF7A8FD2948007828B14FF400512848A0
:100FF000FFF738FB04E04FF400512548FFF734FBBE
:1010000024491E48006800F0D5FE10D222491B4832
:10101000006800F04EFF0AD24FF480411C48FFF7F1
:1010200023FB4FF400411A48FFF71EFB09E04FF481
:1010300080411748FFF716FB4FF400411448FFF7B3
:1010400011FB0121880700F042F800BFBDE8F09FC6
:101050000200002014000020B81E85EB51B89E3F0E
:101060002C0000200800002038000020380200205A
:1010700012000020180000200000A0401C000020EA
:10108000110000206666D63F00007042100000206C
:101090000010014000000C430000484210B501213F
:1010A000074800F023F8012808D106480088401CB2
:1010B000044908800121024800F009F810BD000031
:1010C0000004004000000020CA4302827047CA4367
:1010D0000282704721B1028842F00102028004E0DE
:1010E00002884FF6FE731A400280704730B5024600
:1010F000002000230024158A05EA0103958905EAEA
:10110000010413B10CB1012000E0002030BD10B586
:1011100000F062F810BD1AB183890B43838102E0AD
:1011200083898B438381704701894FF6F8721140A0
:1011300001817047002202881D4B98420ED01D4B42
:1011400098420BD0B0F1804F08D01B4B984205D08D
:101150001A4B984202D01A4B984204D14FF68F7323
:101160001A404B881A43174B984207D0164B9842A7
:1011700004D04FF6FF431A40CB881A4302808B8875
:1011800083850B8803850A4B98420BD0094B984204
:1011900008D00E4B984205D00D4B984202D00D4B13
:1011A000984201D10B7A03860123838270470000A5
:1011B000002C0140003401400004004000080040C1
:1011C000000C0040001000400014004000400140AE
:1011D00000440140004801401FB501210846FFF7C7
:1011E00043FD4FF08040FFF79FFF0020ADF80A005D
:1011F000ADF8060040F22B10ADF8080041F61F4094
:10120000ADF8040000208DF80C0001A94FF08040DB
:10121000FFF790FF01218807FFF756FF01221146D3
:101220009007FFF778FF4FF4A060FFF799FA1C20B2
:101230008DF8000001208DF8030002208DF80100D8
:1012400001208DF802006846FFF752FA0121880755
:10125000FFF740FF1FBD000010B540F225511D48AB
:1012600000F03EF810B31B4800F064F8C4B21A480E
:10127000008800F40040C8B91748008800F4804096
:1012800060B10A2C03D000201349088020E01248E6
:10129000008840F400401049088019E00D2C06D168
:1012A0000D48008840F480400B49088010E00A484F
:1012B0000088C0F30D0009490C5407480088401C01
:1012C0000549088008460088C72801DD00200880FD
:1012D00010BD000000380140340000203807002015
:1012E00070B50246002400230025002040F66A164F
:1012F000B14200D100BFC1F3421501F01F03012626
:1013000006FA03F3012D02D19689334006E0022D3F
:1013100002D1168A334001E0968A33400C1201262E
:1013200006FA04F41688344013B10CB1012000E031
:10133000002070BD01468888C0F30800704700BFD8
:10134000FEE700BF7047FFF799F9FFF747FBFFF78C
:1013500037F8FFF7DCFE00BFFEE7000021F0004297
:10136000A2F16052B2F5801F01F0004328BFD2F114
:101370007F6C0BD95FEA001C43EAC20242EB50705B
:1013800018BF704728BF20F001007047B2F5801FDA
:10139000BCBF184670474FEA410C1CF5001F02D233
:1013A000084600F081BD70B500F014FA0000008915
:1013B000FFF7F6BF4FF00040A0F580007047000037
:1013C00010B591EA030F48BF83F0004300F1948207
:1013D000841A71EB030C05D2121943EB0C03001BAA
:1013E00061EB0C01DFF824E14FEA1154A4EB135C2C
:1013F0001EEA430F18BF9EEA445F73D023EA0E0330
:10140000DCF1200E21EA045143F4801332D322FA96
:101410000CFE10EB0E0023FA0CFE41EB0E01CCF19A
:10142000200E03FA0EFE10EB0E0051F10001B1F593
:10143000801FCCF1200E32D201EB045112FA0EF2D1
:10144000BDE8104058BF7047401C38BF5FEA4202F9
:1014500018BF7047002814BF20F0010041F10001BF
:101460004FEA410313F5001F38BF7047A1F1C04197
:1014700000F0FEB9012A43EB0302ACF1200CDCF1D1
:101480001F0E32BF4FF0000E23FA0CF310EB0300D7
:1014900041EB0451B4EB115FD0D0A1EB045101F545
:1014A000801149085FEA300001EB04510ED350F17E
:1014B000000038BF12FA0EFE08D1BDE81040C9E79F
:1014C000401C38BF5FEA4202CAD1C3E7BDE8104002
:1014D0004FEA410313F5001F38BF7047A1F1C04127
:1014E00000F0C6B99EEA445F08D011EA5E0FBDE87D
:1014F000104004BF01F0004100207047BDE81040DB
:1015000070B500F067F900BF64FBBE3E0000E0FF6D
:10151000491058BFC1F140415B1058BFC3F140436F
:101520008B42EFF3008070474FEA41034FEA535379
:10153000A3F58063D3F11E03C8BFD3F1210C0CDDEA
:101540004FF0004242EAC12242EA505232FA03FC12
:101550008CEAE17CACEBE1707047102BC4BF00203B
:10156000704703F5787CBCF1FF3F04D06FF0004278
:1015700082EA2100704770B500F02CF9499224806E
:1015800000207047F2E700004FEA1153A3F5806393
:10159000D3F11E03A8BFD3F1200C08DB4FF00042AB
:1015A00042EAC12252EA505232FA03F0704709422D
:1015B0000BD4102BC4BF0020704703F5787CBCF11E
:1015C000FF3F05D04FF0FF3070474FF000007047ED
:1015D00070B500F0FFF800BF4992248000207047EA
:1015E000F0E7B0FA80F310FA03F10AD0C3F11D035B
:1015F00003F580634FEA41504FEA035202EBD121D9
:1016000070474FF00000704751EA030C17D41CF5E7
:10161000801F58BFBCF5801F00F10680994218BF9B
:10162000704708BF9042704707D711F5801F58BF19
:1016300013F5801F19D499427047894270471CF5F1
:10164000801F08D5BCF5801FF7D58B4218BF7047A7
:1016500008BF824270474FF4001C1CEB410F38BF9B
:101660001CEB430F01D28B42704770B500F0B2F80B
:10167000922449004FF000514FF08053FFF748BFCC
:10168000DFF848C170B51CEA111E1EBF1CEA131515
:101690009EEA0C0F95EA0C0F00F06F8081EA0304BC
:1016A00023EA4C134EEAD47E21EA4C1141F4801116
:1016B00043F48013AE44A1FB024CA0FB0365AEF1E2
:1016C0007F7E361955EB0C05A1FB034C4CF1000352
:1016D000A0FB021C16EB0C06654153F10003094206
:1016E00018BF46F0010613F4007F0BD14FEA033117
:1016F0004FEA0530340341EA155140EA16506FF0C5
:1017000003020AE04FEAC3214FEAC520F40241EA8E
:10171000555140EA56506FF0020202EB2E4201EBA7
:10172000025585EACE710AD05FEA440C18BF24F056
:10173000004450F1000041F1000120EAD47040F271
:10174000FE7C624500D270BDA84214BF4FF08044B9
:101750004FF04044002E08BF0024BEF1806FA8BFA8
:10176000A1F1C041BDE8704080F282804FF00000DE
:1017700001F1C04101F0004170479EEA0C0F0CEAF4
:10178000131518BF95EA0C0F06D04FF0000081EA40
:10179000030E0EF0004170BD00F01CF88900013E00
:1017A00000F007B800F009B84FEA430C5FEA5C5C50
:1017B00008D081EA030100F05BB84FEA410C5FEA10
:1017C0005C5CF6D14FF00000014970470000FF0754
:1017D0000000F87F0EF1020E2EF0030E5EF8046B8F
:1017E000364205D4012A43EB030515F5001F12D834
:1017F000012841EB010C1CF5001F0CD80ED14FEA5B
:10180000D17C15F5001F0CEB4C0C0CF1020C08BF41
:101810004CEBD37C04E04FF0080C01E04FEAD37CA2
:101820000CEB4C0526FA05F606F00706B6F1040C9B
:1018300006D20EEB860CBDE870404CF0010C604700
:10184000DFE80CF0090B02024FF000414FF00000FE
:10185000A1F5002170BD19461046012851EB010485
:1018600018BFD4F5001484BF002001F0004170BD02
:101870000808A0F500114FEA3101704753EA010C46
:1018800017D41CF5801F58BFBCF5801F00F10680DF
:101890008B4218BF704708BF8242704707D713F5C5
:1018A000801F58BF11F5801F19D48B4270479B428F
:1018B00070471CF5801F08D5BCF5801FF7D59942ED
:1018C00018BF704708BF904270474FF4001C1CEBD4
:1018D000430F38BF1CEB410F01D2994270470FB440
:1018E0000CBC03BCFFF7C1BE10B591EA030F48BFA3
:1018F00083F000433FF56CAD841A71EB030C07D203
:1019000012198CF0004C43EB0C03001B61EB0C0133
:10191000DFF8A4E14FEA1154A4EB135C1EEA430F75
:1019200018BF9EEA445F00F0B08023EA6E03524283
:1019300021EA0451C3EB6E0338BF5B1EDCF1200EBD
:1019400025D322FA0CFE10EB0E0043FA0CFE41EBFD
:101950000E01CCF1200E03FA0EFE10EB0E0051F139
:101960000001CCF1200E29D412FA0EF201EB045141
:10197000BDE8104058BF7047401C1CBFB2F1004F7B
:10198000704700280CBF491C20F00100704712EB83
:10199000020E43EB030218BF4FF0010E4EEA420263
:1019A000ACF1200CDCF11E0E54D943FA0CFE10EB06
:1019B0000E0051F1FF31CCF11E0ED5D50EF1010E06
:1019C00012FA0EFE404141EB010101EB445C5FEA7B
:1019D0005C5C10D910EBDE7001EB045138BFBEF136
:1019E000004FBDE8104018BF704700280CBF491CCD
:1019F00020F00100704730D24FEAD42C11F50011CD
:101A000024F400641BD0B1FA81F20B3AA41AA41E8C
:101A1000D2F12003914030FA03F31943904001EBD7
:101A2000CC71002C01EB0451BDE81040A8BF7047F9
:101A300001F1C0414FF0000001F000417047B0FAE1
:101A400080F310FA03F100D110BDE41A173C4805E9
:101A5000C90AE4E701EB045110BD491001EB045140
:101A6000BDE810404FEA300002E04FF0000170473F
:101A70004A0008BF0042F8D0B2F5001F28BF7047E7
:101A800001F000414FF0000070479EEA445F07D02C
:101A900011EA5E0FBDE8104004BF0021002070472E
:101AA000BDE8104070B5FFF795FE00BF40DFF63E81
:101AB00083F00041104670470000E0FF43004FEA0A
:101AC000D30C4FEA3C0C43401FBF40070CF1605160
:101AD00013F0FE4F70471CF0006F03D100200CF094
:101AE000004170470CF0004343EA507010B540EAE3
:101AF000CC0000F093F900BF000000924FEA000113
:101B0000FFF7B6BE4FF000414FF00000A1F50021F5
:101B10007047000090EA010F48BF81F0004100F1DA
:101B20000082421A3CBF801A89184FEAD0524FF007
:101B30007F4C1CEA410FA2EBD15318BF9CEA026F05
:101B400000F03B804FF0004C4CEA00204CEA0121B1
:101B500021FA03FC10EB0C0C1ED202F1FF325FEAFB
:101B60001C2040EBC25038BF70471CF07F0F4FEA7B
:101B7000400C18BFBCF17F4F38BF7047C3F1200342
:101B8000994008BF20F00100BCF17F4F38BF70477B
:101B9000A0F1C04000F088B94FEA3C00000A40EBD9
:101BA000C25028BF1CF0FF0F4FEA400CE6D018BF10
:101BB000BCF17F4F38BF7047EAE79CEA026F05D05F
:101BC00010EA5C0F08BF00F00040704710B500F04D
:101BD00025F900BF64FBBE3E401058BFC0F1404035
:101BE000491058BFC1F140418142EFF30080704776
:101BF0004FF47F0C1CEAD0121EBF1CEAD11392EAEC
:101C00000C0F93EA0C0F00F0858090EA010F48BF9B
:101C100042F4807240F4000C41F400002CF07F414B
:101C200020F07F4000B58142A2EB03020FF2081CB6
:101C3000ACEB504EC0F100009EF800E04FEA4E0EB3
:101C400000FB0EFC38BF49004FEA2C1C02F5FA02DB
:101C50000CFB0EF34FEACE1E4FEA112C4FEAC121C6
:101C60000EEB635E42EB22420EFB0CFC4FEA1C5370
:101C700000FB03114FEA112C4FEA01310EFB0CFC63
:101C80004FEADC4C00FB0C11C14228BF09184CEB99
:101C900003335DF804EB10EB410143EBC250B2F5A6
:101CA0007C0F38BF704729D512F0F00F1CBF00F130
:101CB000C04000F0004070470081828384858687A1
:101CC00088898B8C8D8E8F919293959697999A9CFB
:101CD0009D9FA0A2A3A5A7A8AAACAEB0B2B3B5B76A
:101CE000B9BCBEC0C2C5C7C9CCCED1D4D7D9DCDF40
:101CF000E2E6E9ECF0F3F7FAFE0000004FEA400CF0
:101D00000CF1807CBCF17E4F28BF7047B0F1C04021
:101D100000F0CAB890EA010F0CEAD11348BF42F4B0
:101D20008072624538BF634507D213F47F0F16D027
:101D300080EA010000F00040704710B500F06EF836
:101D4000097EFC3E00F005B880EA010000F000408A
:101D5000704780EA010000F0004000F0A5B812F4DE
:101D60007F0F04BF0248704780EA010000F09CB872
:101D70000000C07FC10DD1F19E0206DB4FEA0023B7
:101D800043F0004323FA02F07047004207D54FEAC0
:101D90004001B1F1FE4F02D24FF00000704710B584
:101DA00000F03CF849922480002070476FEA200040
:101DB0007047000050EA010C00F113801CF5000F81
:101DC00058BFBCF5000F01D48842704707D710F503
:101DD000000F58BF11F5000F15D488427047894293
:101DE00070471CF5000F04D5BCF5000FF7D58142F4
:101DF00070474FF0807C1CEB400F38BF1CEB410F4D
:101E000001D28142704710B500F008F892244900D1
:101E10004FF000504FF08051FFF7DEBE0EF1020E82
:101E20002EF0030E5EF8044B244204D44FEA410224
:101E3000B2F17F4F11D84FEA4003B3F17F4F0CD876
:101E40000ED14FEAD07CB2F17F4F0CEB4C0C0CF171
:101E5000020C08BF4CEBD17C04E04FF0080C01E011
:101E60004FEAD17C0CEB4C0324FA03F404F0070492
:101E7000B4F1040C06D20EEB840CBDE810404CF01B
:101E8000010C6047DFE80CF0070802024FF0004049
:101E9000A0F5800010BD0846420018BFD2F1807244
:101EA00088BF00F0004010BDFF2141EAD050C005BE
:101EB000704751EA000C00F113801CF5000F58BF69
:101EC000BCF5000F01D48142704707D711F5000F10
:101ED00058BF10F5000F15D48142704789427047F2
:101EE0001CF5000F04D5BCF5000FF7D588427047EC
:101EF0004FF0807C1CEB410F38BF1CEB400F01D230
:101F00008842704780EA010081EA000180EA01000E
:101F1000FFF779BF90EA010F48BF81F000413FF51C
:101F200000AE421A04D882F00042A0EB0200114435
:101F30004FEAD0524FF07F4C1CEA410FA2EBD15335
:101F400018BF9CEA026F4AD04FF0004C4CEA0020C8
:101F50004CEA012121FA03FCB0EB0C0C0FD412F077
:101F6000FE0F36D05FEA4C001DD5001240EBC25088
:101F700038BF70471CF03F0F18BF70470BE0A2F14D
:101F800001025FEA1C2040EBC25038BF70471CF0D2
:101F90007F0F18BF7047C3F12003994014BF401E44
:101FA00020F00100704780084FEA122308BF7047F5
:101FB000B0FA80FCA2EB0C02CCF1280C60FA0CF019
:101FC00093EA122F04BF00EBC25070474FEAC37070
:101FD0007047130A5FEADC1008BF7047F6E79CEA17
:101FE000026F04D010EA5C0F08BF0020704710B5E4
:101FF000FFF714FF40DFF63E81F00040704700001D
:1020000000000000000000000000000000000000D0
:1020100000F8000000000000003330000000001055
:102020000C06100C0600000000000000000040C07C
:102030007840C0784000043F04043F04040000706E
:1020400088FC08300000001820FF211E0000F00866
:10205000F000E018000000211C031E211E0000F00B
:102060000888700000001E21232419272110101653
:102070000E00000000000000000000000000000052
:1020800000E01804020000000007182040000002D1
:102090000418E00000000040201807000000404045
:1020A00080F0804040000202010F010202000000A7
:1020B00000F0000000000101011F0101010000000B
:1020C00000000000000080B0700000000000000070
:1020D00000000000000000010101010101010000F9
:1020E0000000000000000030300000000000000090
:1020F000000080601804006018060100000000E085
:1021000010080810E000000F102020100F00001031
:1021100010F8000000000020203F20200000007088
:102120000808088870000030282422213000003080
:102130000888884830000018202020110E00000078
:10214000C02010F8000000070424243F240000F8F9
:102150000888880808000019212020110E0000E0DE
:10216000108888180000000F112020110E00003880
:102170000808C83808000000003F00000000007098
:10218000880808887000001C222121221C0000E021
:1021900010080810E0000000312222110F0000009A
:1021A00000C0C0000000000000303000000000004F
:1021B00000800000000000008060000000000000BF
:1021C0008040201008000001020408102000404058
:1021D000404040404000040404040404040000089B
:1021E0001020408000000020100804020100007050
:1021F00048080808F0000000003036010000C03038
:10220000C828E810E0000718272423140B0000005A
:10221000C038E0000000203C23020227382008F8E4
:10222000888888700000203F202020110E00C030D8
:10223000080808083800071820202010080008F8AF
:1022400008080810E000203F202020100F0008F8A8
:102250008888E8081000203F20202320180008F874
:102260008888E8081000203F200003000000C030EC
:1022700008080838000007182020221E020008F86D
:1022800008000008F808203F210101213F20000834
:1022900008F8080800000020203F2020000000006F
:1022A0000808F8080800C08080807F00000008F857
:1022B00088C028180800203F20012638200008F890
:1022C000080000000000203F20202020300008F8F7
:1022D000F800F8F80800203F003F003F200008F811
:1022E00030C00008F808203F200007183F00E01029
:1022F00008080810E0000F10202020100F0008F838
:1023000008080808F000203F210101010000E0104A
:1023100008080810E0000F18242438504F0008F86F
:10232000888888887000203F2000030C30200070CF
:102330008808080838000038202121221C001808CD
:1023400008F8080818000000203F2000000008F8E6
:1023500008000008F808001F202020201F0008782F
:10236000880000C83808000007380E010000F8088F
:1023700000F80008F800033C0700073C03000818B9
:1023800068808068180820302C03032C302008381F
:10239000C800C83808000000203F200000001008D6
:1023A0000808C8380800203826212020180000001E
:1023B00000FE020202000000007F40404000000CCE
:1023C00030C000000000000000010638C00000021C
:1023D0000202FE000000004040407F0000000000BC
:1023E00004020202040000000000000000000000DF
:1023F00000000000000080808080808080800002DB
:1024000002040000000000000000000000000000C6
:102410008080808000000019242222223F2008F8BA
:10242000008080000000003F112020110E000000FD
:10243000008080800000000E11202020110000008C
:1024400000808088F800000E112020103F2000003E
:10245000808080800000001F222222221300008042
:1024600080F0888888180020203F2020000000008D
:10247000808080808000006B94949493600008F8C2
:10248000008080800000203F210000203F2000804D
:102490009898000000000020203F2020000000004D
:1024A00000809898000000C08080807F000008F8BD
:1024B000000080808000203F24022D302000000892
:1024C00008F8000000000020203F2020000080804D
:1024D000808080808000203F20003F20003F80805F
:1024E000008080800000203F210000203F2000006D
:1024F000808080800000001F202020201F0080801E
:1025000000808000000080FFA12020110E0000004C
:10251000008080808000000E112020A0FF8080803D
:1025200080008080800020203F21200001000000EA
:1025300080808080800000332424242419000080BF
:1025400080E0808000000000001F202000008080CC
:10255000000000808000001F202020103F2080808D
:1025600080000080808000010E300806010080801D
:102570000080008080800F300C030C300F00008042
:102580008000808080000020312E0E31200080806D
:1025900080000080808080818E701806010000809D
:1025A0008080808080000021302C222130000000BB
:1025B0000000807C020200000000003F404000005C
:1025C0000000FF00000000000000FF00000000020B
:1025D000027C800000000040403F00000000000638
:1025E00001010202040400000000000000000000DD
:1025F0001026000800000020380000002801000814
:102600004826000838000020280E00004401000879
:102610000000000000000000000000000000F03F8B
:1026200000000000000000000000000000000000AA
:102630000000000000000000180000000000000082
:08264000000000000000000092
:040000050800018965
:00000001FF
